:020000040800F2
:10000000D04B0020DD010008D52100084117000871
:10001000E91A00083D1000086939000800000000D6
:100020000000000000000000000000004501000882
:10003000A11500080000000089010008792F0008C0
:10004000F7010008F7010008F7010008F7010008B0
:10005000F7010008F7010008F7010008F7010008A0
:10006000F7010008F7010008F7010008F701000890
:10007000F7010008F7010008F7010008F701000880
:10008000F7010008F7010008F7010008F701000870
:10009000F7010008F7010008F7010008F701000860
:1000A000F7010008F7010008F7010008F701000850
:1000B000F70100088D340008F7010008F701000877
:1000C000F7010008F7010008F7010008F701000830
:1000D000F7010008953500084D3600085D37000827
:1000E000F7010008F7010008F7010008F701000810
:1000F000F7010008F7010008F7010008F701000800
:10010000F7010008F7010008F7010008F7010008EF
:10011000DD340008F7010008F7010008F7010008C6
:10012000F7010008F7010008F7010008F7010008CF
:10013000DFF80CD000F01CFD00480047F144000837
:10014000D04B0020224B19680868B0E8F00F80F30C
:100150000988BFF36F8F4FF0000080F311884EF0D5
:100160000D0E70470000000006480068006880F32C
:10017000088862B661B6BFF34F8FBFF36F8F00DFA1
:1001800000BF00BF08ED00E0EFF30980BFF36F8F01
:100190000F4B1A6820E9F00F106008B54FF0BF0050
:1001A00080F31188BFF34F8FBFF36F8F04F0CAFF46
:1001B0004FF0000080F31188BDE808401968086816
:1001C000B0E8F00F80F30988BFF36F8F704700BF6E
:1001D000A4000020EFF30580704700000648804728
:1001E00006480047FEE7FEE7FEE7FEE7FEE7FEE71C
:1001F000FEE7FEE7FEE7FEE7A52F00083101000855
:1002000040EA01039B0703D009E008C9121F08C098
:10021000042AFAD203E011F8013B00F8013B521E18
:10022000F9D27047D2B201E000F8012B491EFBD28F
:1002300070470022F6E710B513460A4604461946F1
:10024000FFF7F0FF204610BD30B505462A460B46A5
:1002500012F8010B13F8014B08B1A042F8D01CB101
:10026000002802D06D1CF1E7284630BD421C10F872
:10027000011B0029FBD1801A7047000070B50F4D9B
:1002800000B92868002412E00A4602E09E4203D02A
:10029000521C1378002BF9D1DAB2224305D02BB1CE
:1002A00024B1002100F8011B04E00446401C06783C
:1002B000002EE9D12860204670BD0000F800002023
:1002C00070B5064603F0CEFE046805460A220021FA
:1002D000304600F081FB2C6070BDF0B480EA010272
:1002E000D40F4200B2EB410F02D20246084611463B
:1002F0004A0042D0C30DDDB2C1F3C752AD1A202D62
:1003000035DAC1F3160141F4000204B15242C5F1DD
:10031000200602FA06F12A411044B3EBD05F23D045
:10032000C4B1012DA0EBC35009DCF0BC4FF000427A
:1003300002EAC352DBB200F5000000F08EBB4000C1
:1003400000F1807000EBC350A0F1807040EAD170E2
:10035000490009E0490841EAC071A0EBC35000F52B
:100360000000400800EBC350F0BC00F06DBB6142E0
:10037000012202EB4101001BF6E7F0BC704781F05F
:100380000041AAE780F00040A7E780EA010210B52B
:1003900002F00043400022D04A001FD0010E01EBC2
:1003A0001261C0F35600C2F3560240F4000042F45A
:1003B0000002A0FB022000047F39140400D0401C7E
:1003C00050EA124001D44000491EC2B20C0604EBB0
:1003D000D010401C4008802A02D003E0002010BD4D
:1003E00020F00100002900DA0020184310BD42006F
:1003F00005D0C0F3C7525242914201DC0020704741
:1004000000EBC15070472DE9FE4F804681EA0300A2
:10041000C00F0C46009021F0004123F00045B8EBDE
:100420000200A94105D24046214690461C460B4693
:10043000024623F00040104347D0270DC7F30A00BF
:10044000C3F30A510290401A019040286BDAC3F3BB
:10045000130040F4801B0098924620B10023D2EB99
:10046000030A63EB0B0B01985946C0F1400250465A
:1004700000F032FA06460D4650465946019A00F001
:100480004AFA10EB08006141002487EA115284EA1D
:10049000E7731A4340D0009A62B3019A012A4FEAE7
:1004A000075215DC001B61EB02014FF0004202EA2B
:1004B0000752CDE90042001C41F5801132462B461F
:1004C00000F008FB03B0BDE8F08F40462146F9E795
:1004D000001B61EB0201001C41F5801300185B4119
:1004E0002018A2F5001747EB030140EAD570B619B2
:1004F0006D4111E06D084FEA360645EAC0754FEAD6
:100500000752001B61EB0201001C41F580114908F4
:100510004FEA30000019514132462B4603B0BDE886
:10052000F04F00F0C8BA0098012240000023D0EB41
:10053000020263EBE073009821464FEAE074B8EBE7
:10054000000061EB0401E9E783F000435BE781F021
:10055000004158E72DE9FE4F81EA030404F000440E
:1005600021F0004100944FF0000B23F0004350EACB
:1005700001045ED052EA03045BD0C3F30A54C1F312
:100580000A552C44A4F2F3340194A0FB0254C1F3A5
:10059000130141F48011C3F3130343F4801301FBEF
:1005A000024400FB034E840A970A44EA815447EA56
:1005B0008357A4FB076802958D0A05FB07854FEA60
:1005C000932C04FB0C542705029D4FEA065847EA7A
:1005D0001637B5EB08056EEB070C870E920E47EA4F
:1005E000811742EA8312A7FB0201B6EB0B0164EB11
:1005F00000042B0D43EA0C335E1844EB1C50DA4622
:100600005146E7FB0201C5F313044FEA0B3343EAFB
:1006100014534FEA0432019C43EA0603A4F10C048C
:100620000294009CCDE900B400F054FA03B0BDE898
:10063000F08F00200146F9E72DE9F04D81EA03042F
:1006400004F0004B21F0004514464FF0000A23F05F
:10065000004150EA050220D054EA01021DD0C5F342
:100660000A570246C5F31303C1F31300C1F30A5638
:1006700040F4801543F48013A7EB0608101BD64600
:1006800008F2FD3873EB050002D308F1010801E020
:1006900092185B41B8F1000F03DA00200146BDE873
:1006A000F08D00204FF48011064684460EE0171BA3
:1006B00073EB050705D3121B63EB050306434CEAF6
:1006C000010C49084FEA300092185B4150EA0107DB
:1006D000EDD152EA030012D082EA040083EA050158
:1006E000084305D0101BAB4106D20122002306E0CF
:1006F00000224FF0004302E06FF0010253101AEBAA
:1007000006004CEB085110EB0A0041EB0B01BDE871
:10071000F04D00F0D0B970B521F0004303430CD088
:10072000C1F30A550024D5EB040564EB0403D61786
:10073000AD1AB34102DB0020014670BD201841EB29
:10074000025170BDC10F80EAE0700844CA079623C9
:10075000002100F082B90EB5C10F80EAE0700844B4
:10076000CA07002140F233438DE80E000A460B46CB
:1007700000F0B0F903B000BD0EB540F23341029174
:100780000021CDE900110A460B4600F0A3F903B0A1
:1007900000BD00F0004220F00040C10DC0F3160083
:1007A00040F400007F2901DA00207047962903DC1D
:1007B000C1F19601C84001E096398840002AF4D082
:1007C0004042704700F0004230F000400AD0C10DB6
:1007D00001F56071C0F3160042EA0151C2084007FA
:1007E00011437047002001467047000030B5041ED9
:1007F00071F1000404DB4FF00044404264EB01015E
:10080000141E73F1000405DB1C464FF000435242F6
:1008100063EB04038B4208BF824230BD30B5041E37
:1008200071F1000404DB4FF00044404264EB01012D
:10083000141E73F1000405DB1C464FF000435242C6
:1008400063EB0403994208BF904230BD01F00043BE
:1008500030B421F0004150EA010206D00A0DA2F5A1
:100860006072C1F31301002A02DC30BC0020704723
:10087000440F44EAC104C100E01830BC00EBC25090
:1008800000F0E2B8002801DBC0F10040002901DBE4
:10089000C1F1004181427047002801DBC0F10040F6
:1008A000002901DBC1F100418842704730B50B4699
:1008B000014600202022012409E021FA02F59D4290
:1008C00005D303FA02F5491B04FA02F52844151E64
:1008D000A2F10102F1DC30BD202A04DB203A00FA4B
:1008E00002F1002070479140C2F1200320FA03F387
:1008F000194390407047202A04DB203A21FA02F085
:100900000021704721FA02F3D040C2F12002914049
:10091000084319467047202A06DBCB17203A41FAD4
:1009200002F043EAE07306E041FA02F3D040C2F17C
:100930002002914008431946704700000FB400237D
:1009400000B589B00CA900910B996FF00042CB6003
:100950001E4B06931E4B07930423CDE901321D4A1B
:10096000089202466B46002000F0B6F909B05DF827
:1009700014FB70B586B006464FF0FF300091CDE90C
:100980000101002015460C4604903246694604A831
:10099000FFF7D4FF02460498211825B108B1084694
:1009A00000E020462860049800280DD0002A02DDCF
:1009B0000098884208D0081B0094CDE90104324613
:1009C000694604A8FFF7BAFF06B070BD110F000812
:1009D0002F0F00089D0B00082DE9F04791460F46A8
:1009E00080460446002614F8015B2DB100F0D2F8D1
:1009F0000068405DC007F6D12B2D02D02D2D18D0F8
:100A0000641E4A463946204600F0A2FA27B13968EA
:100A1000A14201D1C7F8008071054FF002040BD547
:100A20004042002803DD03F01DFB0460A007BDE881
:100A3000F08746F48066E4E70028F8DA03F012FB5A
:100A400004606FF00040F2E70029A8BF7047401C27
:100A5000490008BF20F00100704710B4B0FA80FCD4
:100A600000FA0CF050EA010404BF10BC704749B111
:100A7000CCF1200421FA04F411FA0CF118BF012181
:100A800021430843A3EB0C01CB1D4FEA00614FEA61
:100A9000102042BF002010BC704700EBC350104430
:100AA0000029A4BF10BC7047401C490008BF20F0BB
:100AB000010010BC704710B5141E73F1000408DA71
:100AC000401C41F1000192185B411A4301D120F012
:100AD000010010BD2DE9F04D92469B4611B1B1FACF
:100AE00081F202E0B0FA80F220329046FFF7F4FE85
:100AF00004460F4640EA0A0041EA0B0153465A46B3
:100B0000084313D0114653EA010019D0C8F140023E
:100B10005046FFF7F0FE05460E46504659464246FF
:100B2000FFF7DAFE084305D0012004E020463946ED
:100B3000BDE8F08D0020054346EAE0762C433743BC
:100B40000A986305E40AA0EB08000022FD0A44EAC3
:100B500047540A3002D500200146E9E70105101983
:100B60006941DDE9084500196941BDE8F04DA2E79A
:100B7000064C074D06E0E06840F0010394E80700EA
:100B800098471034AC42F6D3FFF7D6FABC580008A9
:100B9000DC58000800487047B858000810B50446F3
:100BA000FFF7F8FF0068005D00F0010010BD0000D5
:100BB0002DE9FF4F087883B09946FF2805D0491CDE
:100BC0002D2804D00024002008E000200BE00124A0
:100BD000F9E700EB800003EB4000491C0B78FF2B8A
:100BE000F7D104B1404200230293147819461D4600
:100BF0002D2C01D02B2C04D1521C2D2C13D00024D1
:100C00000294AA461478FF2C0FD00A25A3FB05787E
:100C100001FB05814FF0000C03FB0C11521CE31982
:100C20004AEB0101EEE70124EAE7814453EA0100BF
:100C300002D019F5C87F06DA03980021C0E9001137
:100C400007B0BDE8F08F0025AE4E2F46DFF8B88222
:100C5000184600F0DAF9CDE90001B9F1000002DA36
:100C6000C9F1000400E004460023A74A1AEB030B75
:100C700042EB045A12E0E00707D02A4633463846D2
:100C80004146FFF767FC074688462A46334610462A
:100C90001946FFF75FFC05460E466410002CEAD1AA
:100CA000DDE90001B9F1000F5A46534606DAFFF7B5
:100CB000C3FC3A464346FFF7BFFC05E0FFF74AFC9A
:100CC0003A464346FFF746FC029A0AB181F00041DA
:100CD000039AC2E90001B3E72DE9FF4F1F468DB02B
:100CE000D7E901464FF0FF382E2045464FF0000966
:100CF0000B90B9696D1C0E988847396A82468847FF
:100D00000028F6D1BAF1FF3F0AD024F4D064002EB7
:100D100011DDBAF12B0F08D0BAF12D0F0BD102E083
:100D2000404611B08DE744F48064B9696D1C0E989B
:100D300088478246761E6946600501D52D2000E071
:100D40002B208DF8000001F1010B0DF1200809E0C6
:100D5000B9696D1C0E98884782460F9844F4007458
:100D6000761E0560002E02DDBAF1300FF0D00B992F
:100D70008A453ED144F0800406E00F99681CA9F131
:100D8000010944F400740860B9696D1C761E0E9860
:100D9000884782463028F0D02BE00B998A4505D150
:100DA000200603D444F08004761E18E0504603F079
:100DB00079F908B30DF11301761E44F400748B45E4
:100DC00008D2AAF130000BF8010B200607D5A9F1D3
:100DD000010003E0200602D409F101008146A005CC
:100DE00002D50F99681C0860B9696D1C0E98884778
:100DF0008246002ED1DC53E0002E51DDBAF1650FA2
:100E000002D0BAF1450F4BD1A00549D5B9696D1C87
:100E100024F44074761E0E9888478246002E0CDD1E
:100E20002B2804D0BAF12D0F07D144F48074B9698E
:100E30006D1C0E9888478246761EE00501D52D214F
:100E400000E02B2108F8011BCDF82C8021E00DF1EA
:100E50002901761E44F4007488450CD2AAF13000B2
:100E600010F0FF0088F8000002D10B99884509D9DD
:100E700008F1010806E0E00501D5244801E042F24E
:100E80000F708146B9696D1C0E98884782460F988D
:100E90000560002E04DD504603F004F90028D6D189
:100EA000F9690E988847FF208BF8000088F8000049
:100EB0000020069007904B466A4608A906A8FFF74F
:100EC00077FEA00502D46FF001002AE714F0240F8A
:100ED0000AD0E00714D1DDE906123868031D3B6033
:100EE0000068C0E900120BE0DDE90601FFF7AEFC87
:100EF0000146E00704D13868021D3A6000680160CD
:100F000028460EE7000014400000F03FF1D8FFFF34
:100F1000426842B1016811F8013B23B1521EC0E999
:100F20000012184670470121C160881E7047426850
:100F30005AB1C368016843B983688B4205D0491E22
:100F4000521CC0E90012002070474FF0FF3070477C
:100F50002DE9F05F82460078002715468B460AF19E
:100F60000104B946302801D09DB113E014F8010BFB
:100F70000127782803D0582801D045B10AE00DB1E7
:100F8000102D07D10027102514F8010B02E00825C9
:100F900000E00A250026B0460EE005FB080005FB30
:100FA00006F1012701EB10461FFA80F8B6F5803FE5
:100FB00000D3B94614F8010B294600F018F80028B0
:100FC000EBDABBF1000F05D00FB1641E00E0544610
:100FD000CBF80040B9F1000F06D003F043F802212E
:100FE0000160C81EBDE8F09F48EA0640FAE73A28CB
:100FF00000D2303820F02002412A01D3A2F137007C
:10100000884201D34FF0FF3070470EB540F23342B3
:1010100002920022CDE900221346FFF75BFD03B0E8
:1010200000BD00000221014800F086BB000C014019
:101030000221014800F082BB000C0140FEE70000E5
:10104000F0B5827A012191402E4A136843F00103E2
:1010500013602C4B1C331C688C431C60294D067B91
:10106000294C0C35A6B92E688E432E604688C78859
:1010700046EA0746877A04EBC707C7F84066068842
:10108000878846EA0746877A04EBC707C7F84466AD
:10109000067B012E12D12E680E432E60867A0568DB
:1010A00004EBC6064FEA3545C6F84056867A4568D1
:1010B00004EBC6044FEA3545C4F84456114CC57AD2
:1010C000241D002D256806D00D4325600D4C058993
:1010D000143415B104E08D43F7E725688D4325608E
:1010E0000589012D02D125680D432560407B01282B
:1010F00002D1186808431860106820F001001060E1
:10110000F0BD0000006600400060004010B50368BC
:10111000002223F002030360036843F0010303602D
:101120004FF6FF7300E0521C4468E40701D19A4275
:10113000F9D14268D2073ED08A79012A02683CD0B0
:1011400022F080020260CA79012A026838D022F0B7
:10115000400202600A7A012A026834D022F020029A
:1011600002604A7A012A026830D022F0100202603E
:101170008A7A012A02682CD022F008020260CA7A18
:10118000012A026828D022F0040202608A78CC7812
:10119000920742EA04620C7942EA04424C790988D7
:1011A00042EA0452491E0A43C261016821F001016A
:1011B0000160002114E0002010BD42F08002C1E770
:1011C00042F04002C5E742F02002C9E742F01002B7
:1011D000CDE742F00802D1E742F00402D5E7491C0E
:1011E0004268D20701D09942F9D14068C007E2D1E4
:1011F000012010BD0246002029B1012902D1106949
:1012000000F003007047D068FAE700002DE9F043D2
:101210000F46804689B0994616460121052001F007
:10122000A1FA0121480601F091FA4FF48050ADF87F
:101230001C0003208DF81E001820224C8DF81F0082
:1012400007A9204600F0ECF9E014ADF81C00482096
:101250008DF81F0007A9204600F0E2F900240125BF
:101260008DF806408DF808508DF807508DF809501C
:101270008DF802408DF80A508DF803808DF80460D7
:101280008DF80B408DF80570ADF8009069460E485A
:10129000FFF73CFF8DF816408DF817408DF8185079
:1012A000ADF80C40ADF81040ADF80E40ADF812406E
:1012B000ADF814408DF8195003A8FFF7C1FE09B02E
:1012C000BDE8F083000801400064004010B500EB69
:1012D0000113D3F8B04114F004041472D3F8B041F0
:1012E00034D0E408C2F80440D3F8B04104F002045A
:1012F0005472D3F8B44104F00F049472D3F8B4419B
:10130000240AD474D3F8B841D472D3F8B841240A6B
:101310001473D3F8B841240C5473D3F8B841240E95
:101320009473D3F8BC41D473D3F8BC41240A147429
:10133000D3F8BC41240C5474D3F8BC311B0E937405
:1013400039B1016941F02001016110BD640D1460E3
:10135000CAE7C16841F02001C16010BD30B5024646
:10136000002093685B0108D49068000101D501203A
:1013700003E09068C00037D5022002EB0012D2F8DB
:10138000803103F00103C2F880310B7A73B3D2F8D5
:1013900080414D681C434B7A43EAC5031C43C2F8A5
:1013A00080418B7A03F00F038B72D2F8843123F0E3
:1013B0000F03C2F88431D2F884318C7A2343C2F807
:1013C0008431CB7ACC6843EA0423C2F88831CB7BE2
:1013D000096943EA0121C2F88C11D2F8801141F069
:1013E0000101C2F8801130BD042030BDD2F8803137
:1013F0004C7A23430C8843EA4453C2F88031D0E747
:10140000002221B1012905D0022906D112E082680B
:10141000114801E08268114802401149501A8A427D
:1014200014D00ADCA2B16FF0806010180FD002282F
:101430000CD10FE082680B48EEE7B0F5007F09D0D1
:101440000949401803D0B0F5003F03D00020704791
:1014500002207047012070470300000400030008C9
:1014600000010008000003100001FFF72DE9F04122
:101470000E46074615460421052000F085F8002198
:10148000012002F065FD80210A2001F057FC0024B4
:1014900005E0395D092002F05BFD641CE4B2B44252
:1014A000F7D30321012002F053FDFF24052001F0B2
:1014B00015FA641E14F0FF0401D04007F6D522206F
:1014C00001F00CFA2870212001F008FA6870BDE8DC
:1014D000F081000070B5114E05460424002130460D
:1014E000FFF788FE40B9012003F0C6FD641EA4B2D8
:1014F000012C10D0002CF1D1094A00213046FFF711
:10150000E5FE074800214218D27A6A54491C08298E
:10151000F9D3807A70BD002070BD000000640040E7
:10152000F4020020F0B585B00022132300931223AB
:101530008DF8082001938DF809208DF80A106B466C
:1015400004E0845C9D18521CEC7292B28A42F8D37B
:101550000C4F19463846FFF701FF0646002440F6B7
:10156000FF7501E0641CA4B231463846FFF748FF1E
:1015700008B9AC42F6D3AC4202D3012005B0F0BDAD
:101580000020FBE70064004070B50C46054601F002
:10159000A5F920EA04012846BDE8704002F0D8BC55
:1015A000704700001CB50A4619A3B2F5000FD3E935
:1015B0000013CDE900138DF8010004DB01208DF844
:1015C0000200154900E015491046FEF7DEFEFFF760
:1015D000E0F842F2107190FBF1F2642192FBF1F31A
:1015E00001FB13228DF8032090FBF1F292FBF1F343
:1015F00001FB13228DF8042090FBF1F201FB120095
:101600008DF8050008216846FFF78CFF1CBD00001F
:1016100005000000000000000000C8420000C8C231
:10162000F0B5CA78002502F00F03D20601D58A78FA
:1016300013430A784FF00F0E12F0FF0F4FF0010224
:101640001CD004680F8802FA05F63740B74211D162
:101650004FEA850C0EFA0CF724EA070703FA0CF49C
:101660003C43CF78282F02D0482F02D002E04661B9
:1016700000E006616D1C082DE4D304600C88FF2C8B
:101680001ED944685FF0000606F1080702FA07F564
:101690000F882F40AF420FD14FEA860C0EFA0CF79D
:1016A000BC4303FA0CF73C43CF78282F00D14561A7
:1016B000CF78482F00D10561761C082EE4D3446012
:1016C000F0BD0000F0B5144C002801DAE36900E039
:1016D0006368420D120185B2C0F301579540C0F313
:1016E0000346032F05D0C2020AD50322B24093431A
:1016F00007E023F07062636823F07063636002E0C8
:10170000AB4343F0706201B12A43002801DAE26181
:10171000F0BD6260F0BD0000000001400246002004
:1017200092680A4200D00120704702460020D26829
:101730000A4200D001207047416170470161704743
:10174000FEE7000038B50121102001F00BF801215F
:10175000082001F007F810208DF803004402ADF8CE
:10176000004001201A4D8DF8020069462846FFF717
:1017700057FF21462846FFF7E1FF0220ADF80000A1
:1017800069461448FFF74CFF21462846FFF7D4FF6F
:10179000FFF74EFC052002F0DDFDFFF743FC5F2064
:1017A00002F0D8FDFFF744FC052002F0D3FDFFF75F
:1017B00039FC5F2002F0CEFDFFF73AFC052002F075
:1017C000C9FDFFF72FFC5F2002F0C4FD38BD00000B
:1017D00000100140000C014070B5094D4FF4005459
:1017E00021462846FFF7A1FF00282146284603D0BE
:1017F000BDE87040FFF7A0BFBDE87040FFF79EBF97
:10180000001001401648FA230146B0F90620B1F94C
:101810000810C82A05DBC82901DB838204E0818225
:1018200002E0C8290BDB82820D49B0F90220B1F930
:101830000410C82A0ADBC82906DB4382704711441A
:1018400001EBD1714910EAE741827047C82901DBF9
:1018500042827047114401EBD1714910F4E7000056
:1018600014010020254CFA25012001F0C7FAE18976
:10187000084400B2A0F10A01AB2901D3E58000E0E1
:10188000E080052003F0F8FBFFF7BCFF022001F029
:10189000B5FA218A084400B2A0F10A01AB2901D3AC
:1018A000258100E02081052003F0E6FBFFF7AAFF79
:1018B000032001F0A3FA6189084400B2A0F10A01F3
:1018C000AB2901D365800FE06080052003F0D4FBD5
:1018D000FFF798FF042001F091FAA189084400B2B3
:1018E000A0F10A01AB2901D3A58000E0A0800F2060
:1018F00003F0C2FBFFF786FFB6E7000014010020EB
:10190000DFF8D0A0344D0AF1100B00BF9AF80000A8
:1019100000285AD12F4C143CE0886188401A218954
:10192000401AA081E189401A00B22082296B084444
:101930002863FEF707FF294A294903F0FBFAFEF75F
:1019400028FF28632749DBF82800884207DA264960
:10195000884204D8DFF89490254F264E03E0264FA6
:10196000264E4FF00009B4F9108040F2572108F2DA
:101970002B10884201D200202863686BA8EB00007E
:10198000FEF7E0FE3146FEF700FD0446286BFEF749
:10199000D9FE3946FEF7F9FC06464046FEF7D2FE70
:1019A0004946FEF7F2FC3146FEF797FC2146FEF76A
:1019B00094FC4FF07E52124903F0BCFA05491439E9
:1019C000B1F910106963CBF838000A2003F054FB1A
:1019D0009CE70000400100201400002000409C45CE
:1019E00000409CC5CDCC4C3ECDCC4CBE17B7D139B8
:1019F000ACC527376F1283BA82A8FB3752499DB90D
:101A0000000080BF364F4FF0010907F11008002693
:101A100007F1D40494F8390000285AD0304831A195
:101A2000D430FEF72BFC60632EA10020FEF726FCCD
:101A30006063FEF745FC85B2422D1ED03E7029A1A1
:101A40000020FEF71BFC6063FEF73AFCFEF77AFE0F
:101A5000834624A10020FEF711FC6063FEF730FCF2
:101A60001FFA80FA1FA10020FEF708FC6063FEF752
:101A700027FC83B2062D23D026E087F8009019A119
:101A80000020FEF7FBFB606302F0F5FBFEF7DEFED5
:101A9000C8F83000454613A10020FEF7EFFB606355
:101AA00002F0E9FBFEF7D2FE68630EA10020FEF70C
:101AB000E5FB606302F0DFFBFEF7C8FEA86308E009
:101AC00088F84490C8F8486052465946284600F0C5
:101AD00063FB84F83960012003F0CEFA9AE7000036
:101AE000400100207C000000FEE70000DFF80884D1
:101AF0009CB04FF47A7A08F118040025EB46FE4EAC
:101B00002C36B078012809D0022875D0032874D06B
:101B10003146052872D0062871D0C8E2B8F9000015
:101B2000B6F90C10401AFEF70DFEF449074688423C
:101B300070DBB6F90E00B8F9123000EBD072B3EBDF
:101B4000620F2FDAEEA002F069FAEB4FFA203C3771
:101B50003D6303F091FA4FF4FA60E081C82003F08E
:101B60008BFA564602E0642003F086FAB4F91000BE
:101B700000F5FA70B042F6D8E4483863304603F016
:101B80007BFAFA203D6303F077FAE581C82000E094
:101B9000642003F071FAB4F9100000F5FA70B04255
:101BA000F6D884E2B8F91410B1EB620F33DAD8A09A
:101BB00002F034FAD04FFA203C373D6303F05CFA70
:101BC000D648E081C82003F057FA564602E0642068
:101BD00003F052FAB4F9100000F5FA70B042F6D8EA
:101BE000CA483863304603F047FAFA203D6303F0F1
:101BF00043FAE581C82004E077E0B3E043E14EE139
:101C0000642003F039FAB4F9100000F5FA70B0421C
:101C1000F6D84CE213E0834206DAA4F80EA0C820FE
:101C200003F02AFABEA007E0814208DABF48E0814B
:101C3000C82003F021FABEA002F0F0F900E0E5812F
:101C4000B7F5000F01DABD484BE0BD48874207DC1D
:101C5000A9483C3005637570B57080F8445019E2AE
:101C6000B6F90C00FEF777FD4FF03332B54BFEF7B7
:101C700071FC814638461B91FEF7A4FD07464A4693
:101C80001A911B9BFEF7B2FD05D8B068FEF79AFDCE
:101C9000AD4AAE4B21E0B6F90C00FEF75CFDAC4A54
:101CA000AC4BFEF757FC02460B4638461A99FEF736
:101CB0009DFD01D8B0681AE2B6F90C00FEF74BFDA5
:101CC0000022A54BFEF746FC02460B4638461A9901
:101CD000FEF78CFDB0687DD81FE2FEF73BFCFEF7F7
:101CE000B5FD85493C310863E1E1B06810F0FF4F74
:101CF00003D0B0F17E5F05D016E0B089B62148432D
:101D0000208111E0B18920895B22514300EB410021
:101D100000B210F5004F02DBB0F5004F00DD00B25D
:101D200020814FF08040B060C82003F0A5F9B4F9DD
:101D30000C0040F2E73100F2F3108842D4D24FF4A5
:101D4000167003F099F985A10BF1040002F076F901
:101D5000834800231A466946406E03F09BFA75706B
:101D6000B570A4E14FF26000E0814FF00009C82097
:101D700003F082F94FF4C87602E0642003F07CF9A6
:101D8000B4F91000C830B042F7D876A002F046F996
:101D9000C82003F071F940F6C410E081C82016E0B5
:101DA000B8F80210B8F80400081A00B2401D0A285A
:101DB0000CD8B9F1000F09D1608821894FF00109D1
:101DC000401A60F30F0768A002F028F9642003F0BE
:101DD00053F900E0BBE1B4F91000C830B042DFD8DD
:101DE000C82003F049F94FF23C60E081C82003F0BD
:101DF00043F94FF0000918E0B8F80210B8F80400F1
:101E0000081A00B2401D0A280CD8B9F1000F09D1F8
:101E1000608821894FF00109401A60F31F4753A0E1
:101E200002F0FCF8642003F027F9B4F91000C83080
:101E3000B042E1D8C82003F01FF938B200EB2740C8
:101E400000EBD0704010E080E58102E0642003F0F8
:101E500013F9B4F91000C830B042F7D84FF4167037
:101E600003F00AF93DA10BF1040002F0E7F83C4849
:101E700000231A466946406E03F00CFA1E482C30C7
:101E80004570857013E11C483C3080F84450056370
:101E9000E5814D708D7036A002F0C0F807E116485C
:101EA0002C30B0F90C703846FEF74CFC12493C312E
:101EB000896CFEF764FAFEF76CFC06B23846FEF752
:101EC0004AFC2D4A2D4BFEF745FB07468946304616
:101ED000FEF741FCCDE91A013A464B46FEF79EFC5F
:101EE00075D80548B8F912202C30B0F90E0000EB77
:101EF000D073B2EB630F43E0140100200000C8422E
:101F0000544F4F204C4546540A000000CDCC4C3D68
:101F1000544F4F2052494748540A000030F8FFFF01
:101F2000746F6F206C6566740A00000018FCFFFF78
:101F3000746F6F2072696768740A00008FC2F5BC05
:101F4000000020413333F33FFCA9F1D24D62503FF2
:101F5000CDCCCCCCCCCCFC3F00000440400A0000EF
:101F6000140000202D310A002D320A002D330A0002
:101F7000444F4E45350A00009A9999999999B93F6D
:101F800030DAAFF2840002F049F8734FFA203D6373
:101F900003F072F84FF4FA60E081C82003F06CF8A7
:101FA000564602E0642003F067F8B4F9100000F52B
:101FB000FA70B042F6D869483863304603F05CF8EE
:101FC000FA203D6303F058F8E581C82001E053E0B2
:101FD000642003F051F8B4F9100000F5FA70B04233
:101FE000F6D864E0B8F91410B1EB630F2EDAAFF253
:101FF000E00002F013F8584FFA203D6303F03CF87C
:102000005748E081C82003F037F8564602E06420C4
:1020100003F032F8B4F9100000F5FA70B042F6D8C7
:102020004E483863304603F027F8FA203D6303F04A
:1020300023F8E581C82000E0642003F01DF8B4F91E
:10204000100000F5FA70B042F6D830E0824207DAAC
:10205000A4F80EA0C82003F00FF8AFF23C1008E07F
:10206000814209DA3F48E081C82003F005F8AFF269
:10207000401001F0D3FF00E0E581002E03DC36487C
:102080003949016313E0012E15DC3348056310382C
:1020900045708570AFF23C110BF1040001F0CEFFEA
:1020A000324800231A466946406E03F0F3F80A20CE
:1020B00002F0E2FF23E5284F103FB7F90C00FEF7CE
:1020C0004AFB2B4A2B4BFEF745FA02460B46DDE94D
:1020D0001A01FEF78BFB01D8012000E00020142E2E
:1020E00001DC012100E00021084305D0B868FEF7BB
:1020F00069FB214A214BF0E5B7F90C00FEF72BFBF9
:102100004FF033321E4BFEF725FA02460B46DDE94F
:102110001A01FEF76BFB05D8B868FEF753FB194AA6
:10212000194BDAE5B7F90C00FEF715FB4FF0FF325B
:10213000FEF7F1FA02460B46DDE91A01FEF756FBFF
:10214000B86804D8FEF73EFB104A114BC5E5FEF710
:1021500039FB0C4A0F4BC0E550010020CDCC4C3D63
:1021600030F8FFFF18FCFFFF0AD723BD1400002042
:102170009A9999999999B93FFA7E6ABC7493683F84
:102180003333D33F7B14AE47E17A743FFCA9F1D2DD
:102190004D62803FE17A843FF0B4094C12B21BB229
:1021A000667801252EB1052803D006A0F0BC01F009
:1021B00035BFA070A160A281E381657003A0F5E73F
:1021C00040010020554E474F540A0000474F540A23
:1021D000000000007047000070B50F23C47801783C
:1021E0000122F4B1144C2468457804F4E064C4F589
:1021F000E064240AC4F10406E3408478B5401C403E
:102200002C4301F1E021230181F80034007800F033
:102210001F018A404009800000F1E020C0F8002141
:1022200070BD01F01F0082404809800000F1E020ED
:10223000C0F8802170BD00000CED00E002490843A9
:1022400002490860704700000000FA050CED00E04C
:102250002DE9F047304C314F05464FF03336012819
:102260002ED0022D2AD1606AFEF7ACFAB146324672
:10227000B8463B46FEF7E0F907460E466069FEF7B2
:10228000A1FA3A463346FEF7BEF8FEF7DFFA0146FA
:102290002846FFF787F9606AFEF794FA4A464346F4
:1022A000FEF7CAF906460D466069FEF78BFA32461C
:1022B0002B46FEF7A8F8FEF7C9FA6061BDE8F08783
:1022C000206AFEF77FFAB1463246B8463B46FEF733
:1022D000B3F907460E462069FEF774FA3A463346CC
:1022E000FEF791F8FEF7B2FA01462846FFF75AF9D1
:1022F000206AFEF767FA4A464346FEF79DF906460E
:102300000D462069FEF75EFA32462B46FEF77BF853
:10231000FEF79CFA2061D1E75001002033330540DD
:1023200003211420FFF730B910B5142000F0D6FABD
:10233000800705D10321BDE81040142000F0FEBC49
:1023400010BD70B50646082188B000240846FFF786
:102350001BF900210D2001F0FBFD80210E20FFF76D
:1023600013F993208DF8040020208DF8050006A8AD
:1023700001AB0090022219460C2000F018F8054627
:1023800026280DD1002101A8425C7254425C491CF0
:102390005440C9B20429F7D3405CA04200D0BB2509
:1023A00080210E2000F0CAFC08B0284670BD2DE93F
:1023B000FF5F0027BB25DDF838A016468B46814617
:1023C000B8460C2805D0B9F10E0F05D11227102000
:1023D00001E077273020804647F08001022001F09D
:1023E000B7FD80210420FFF7CFF80021012001F084
:1023F000AFFD80210A2000F0A1FC002405E01BF8BD
:102400000410092001F0A4FD641CB442F7D349462E
:10241000012001F09DFDB9F10C0F03D180210D20A9
:1024200000F08CFC042000F059FA4FF4FA760420F6
:1024300000F054FA0446761E04D0E00702D114EAF4
:10244000080FF4D080210D20FFF79EF836B106204A
:1024500000F044FA10F01B0F0CD0BB2580210C209B
:1024600000F06CFC0021012001F072FD04B0284650
:10247000BDE8F09F26253C40E00700D0CC25B9F10F
:102480000C0FEBD10A2000F029FA04460C2000F0D2
:1024900025FA10F007004FEAC40101D008390144C1
:1024A000CAF8001024B1122C04D91224002603E02B
:1024B0000124FBE7002605E0092000F00FFA03994C
:1024C0008855761CA642F7D3C8E700B587B05020E0
:1024D0008DF8040000208DF805000DF106020221A0
:1024E00001A8FEF7C3FF06A801AB0090042219461D
:1024F0000C20FFF75CFF07B0262000BD30B587B089
:102500000D4630218DF8041001AC8DF80500022134
:102510002046A21CFEF7AAFF06A801AB00900422E9
:1025200019460C20FFF743FF262802D1069990296F
:1025300002D0BB2007B030BD0023E15CE9545B1C36
:10254000DBB2102BF9D3F5E730B50C460546082170
:1025500087B00846FFF718F807210D2001F0F8FCB6
:102560000321142000F0EAFB06A801AB00908DF8CF
:102570000450012219460C20FFF719FF262802D12A
:102580000699102902D0BB2007B030BD9DF8041079
:1025900021709DF805106170F6E7000010B51E4C23
:1025A00010212046FFF7CAF8022001F0EEFE1021AC
:1025B0002046FFF7C1F8022001F0E7FE1021204677
:1025C000FFF7BCF8022001F0E0FE0F21012001F02E
:1025D000BFFC012000F082F9C006FAD4022001F00D
:1025E000D4FE3D21112001F0B3FC1E212D2001F06D
:1025F000AFFC00212C2001F0ABFC8D212A2001F042
:10260000A7FC3E212B2001F0A3FC4021152001F066
:102610009FFC262010BD00000010014010B588B0BE
:1026200093218DF8041070218DF8051000218DF88C
:102630000A1001AA5418435CA370445C9DF80A3048
:10264000491C6340C9B28DF80A300429F2D307212E
:1026500001A8D21DFEF70AFF08210846FEF794FFE5
:1026600006A801AB0090092219460C20FFF79FFE37
:10267000262802D10699182900D0BB2008B010BD29
:1026800010B500F0B5F910210548FFF757F82021E3
:102690000448FFF753F8BDE81040FFF77FBF000084
:1026A0000010014000080140F8B50121042000F0AD
:1026B00059F81024ADF800400325224E8DF8025041
:1026C0008DF8034069463046FEF7AAFF0121042039
:1026D00000F048F82020ADF800008DF802508DF889
:1026E000034069463046FEF79BFF0121042000F0BD
:1026F00039F84020ADF800008DF802508DF8034005
:1027000069463046FEF78CFF0121042000F02AF8CC
:102710008020ADF8000004208DF8030069463046A3
:10272000FEF77EFF0121102000F01CF8ADF80040FC
:102730008DF802508DF8034069460348FEF770FF9C
:10274000F8BD00000008014000100140044A0029C3
:10275000D16901D0014300E08143D161704700009D
:1027600000100240044A0029916901D0014300E0B1
:1027700081439161704700000010024030B51F494D
:102780004A6812F00C031E4A03D0042B01D0082B18
:1027900021D002604A680F231A4C03EA1212A35C8C
:1027A0000268DA4042604B68072505EA1323E35CC0
:1027B00022FA03F383604B6805EAD323E35CDA4033
:1027C000C2604968032303EA9131231F595CB2FBBD
:1027D000F1F1016130BD4A684B6802F470124FF0AC
:1027E000020413F4803F04EB924202D04B689B0337
:1027F00001D5054B00E0024B5A43CAE700100240E6
:1028000000127A000400002000093D00F0B5428863
:10281000642304885A43B2FBF4F2D3B2828864255D
:10282000C0886A436843B2FBF4F2B0FBF4F0D2B262
:10283000C0B2934203D2824203D3154604E08342DE
:1028400001D2054600E01D46934203D9824203D8D7
:10285000164604E0834201D9064600E01E46AF1941
:10286000AC1B4FEA570CE4B281F803C0B54202D169
:102870000020088030E09D420CD18242A2EB000093
:10288000C0EB00104FEA800090FBF4F015D200F589
:10289000B47012E0954207D1C01AC0EB001080005E
:1028A00090FBF4F0783008E0854207D1981AC0EB2D
:1028B0000010800090FBF4F0F0300880BCF1320F83
:1028C00004D8C4EB0420B0FBF7F005E064204443D7
:1028D000C7F1C80094FBF0F08870F0BD2DE9F0411D
:1028E000314C0646002520212046FEF725FF022018
:1028F00001F04BFD10212046FEF71EFF022001F0E3
:1029000044FD7E2000EA460040F080070826380695
:102910004FF04001204602D5FEF710FF01E0FEF720
:102920000BFF022001F031FD20212046FEF706FFBB
:10293000022001F02AFD7806070E20212046FEF72E
:10294000FBFE022001F021FD761E16F0FF06DED10F
:10295000082620212046FEF7F1FE022001F015FD99
:102960006806070E80212046FEF7D8FE40EA0705DC
:1029700020212046FEF7E0FE022001F006FD761E33
:1029800016F0FF06E5D120212046FEF7D7FE0220F3
:1029900001F0FBFC10212046FEF7D0FE022001F0E2
:1029A000F4FC2846BDE8F0810008014070B50D4CEC
:1029B000D4E9065631462846FDF78FFC4FF0FF312B
:1029C000FDF715FDA06231462846FDF7D8FCFDF75E
:1029D000F9FE054A054BFDF72FFEFDF737FFE062D4
:1029E00070BD0000500100200AD7A3703D0AB73F18
:1029F000F8B501211420FFF7B5FE1024ADF8004012
:102A00001B4E8DF8034003258DF802506946304671
:102A1000FEF706FE2020ADF800008DF803408DF88B
:102A2000025069463046FEF7FBFD8020ADF80000FD
:102A300004208DF803008DF8025069463046FEF7F9
:102A4000EFFD4020ADF800008DF803408DF80250F6
:102A500069463046FEF7E4FDADF800408DF80340CE
:102A60008DF8025069460348FEF7DAFDF8BD000014
:102A700000080140001001409AB0094C4FF0FF35AA
:102A80006E462A466946606E02F080FC012803D13A
:102A9000311D04A001F0C2FA012002F0EDFAF0E7C6
:102AA00014000020257300002DE9F04F012187B0AC
:102AB0008803FFF757FE01210420FFF753FE482645
:102AC0008DF813604FF4806AADF810A003208DF8E4
:102AD000120004A99248FEF7A3FD18278DF8137081
:102AE0004FF40070ADF8100003208DF8120004A917
:102AF0008B48FEF795FD00244FF00C09DFF824B257
:102B00004FF4E138ADF80A90ADF80640CDF80080FA
:102B1000ADF80C40ADF80840ADF8044069465846A1
:102B200000F0C8FE012240F22551584600F0A9FEEF
:102B30004FF4A060FFF782FB25208DF814000125DB
:102B40008DF817508DF815508DF8165005A8FFF721
:102B500043FB0121584600F06BFE01214804FFF7BA
:102B6000F5FD01210420FFF7FDFD8DF8136008201D
:102B7000ADF8100003208DF8120004A96848FEF794
:102B80004FFD8DF813700420ADF8100003208DF870
:102B9000120004A96248FEF743FDDFF88CB1ADF8DE
:102BA0000A90ADF80640CDF80080ADF80C40ADF8C5
:102BB0000840ADF804406946584600F07BFE01220B
:102BC00040F22551584600F05CFE4FF4A060FFF73C
:102BD00035FB26208DF814008DF817508DF8155010
:102BE0008DF8165005A8FFF7F7FA0121584600F0B6
:102BF0001FFE01218804FFF7A9FD01210820FFF72E
:102C0000B1FD8DF813604FF4006BADF810B00320E8
:102C10008DF8120004A94548FEF702FD8DF81370E7
:102C2000ADF810A003208DF8120004A93F48FEF76C
:102C3000F7FCADF80A90ADF80640CDF80080ADF88D
:102C40000C40ADF80840ADF804406946384800F043
:102C500031FE012240F22551354800F012FE4FF4BA
:102C6000A060FFF7EBFA27208DF814008DF81750BD
:102C70008DF815508DF8165005A8FFF7ADFA012113
:102C80002B4800F0D5FD0121C804FFF75FFD0121AD
:102C90001020FFF767FD8DF81360ADF810B003202A
:102CA000244E8DF8120004A93046FEF7B9FC8DF8C9
:102CB0001370ADF810A003208DF8120004A930465F
:102CC000FEF7AEFCADF80A90ADF80640ADF80C404A
:102CD000ADF80840ADF80440174CCDF800806946C7
:102CE000204600F0E7FD012240F22551204600F089
:102CF000C8FD4FF4A060FFF7A1FA34208DF814004E
:102D00008DF817508DF815508DF8165005A8FFF75F
:102D100063FA0121204600F08BFD07B0BDE8F08F7B
:102D2000000801400038014000440040000C014010
:102D30000048004000100140004C004070B50C46B7
:102D40000546FFF7CBFD40EA04012846BDE8704088
:102D500001F0FEB80CB500212648019100910268EF
:102D600042F4803202604FF4A063026802F4003241
:102D70000092019A521C0192009A12B9019A9A4249
:102D8000F3D10268920333D5012100911A490A68F0
:102D900042F010020A600A6822F007020A600A681C
:102DA00042F002020A604168416041684160416846
:102DB00041F480614160416821F47C1141604168C7
:102DC00041F4E8114160016841F0807101600168DF
:102DD0008901FCD5416821F003014160416841F05F
:102DE000020141604168C1F381010229FAD10CBDA1
:102DF00000910CBD00100240002002400149087003
:102E000000F0DBBEF40000202DE9F05F2A4C256BBA
:102E1000A06BE563FDF7D6FCDFF8A0908B46064675
:102E20004A46274BFDF796FB074688462846FDF79E
:102E3000C9FC8A4605463A464346FDF785FBFDF741
:102E400005FD2F4620625546304659464A461D4BE1
:102E5000FDF780FB3A462B46FDF776FBFDF7F6FCC7
:102E60006062A1682068FDF78AFA174D2946FDF7D0
:102E70008CFAFDF7A7FC154E154F32463B46FDF781
:102E800069FBFDF7E3FCA061E1686068FDF777FA94
:102E90002946FDF77AFAFDF795FC32463B46FDF7E9
:102EA00059FBFDF7D3FCE061FFF780FD2068A060CF
:102EB0006068E060BDE8F09F500100200AD7A37071
:102EC0003D0AA73F3D0AA7BF0000C842D9CEF7532D
:102ED000E3A59B3F7CB50020009001906846FEF77B
:102EE000F9FA9DF80100214D214E224C01281FD0F6
:102EF00002281CD19DF80500FDF73EFC2A4633460A
:102F0000FDF728FB0D469DF8031006469DF80400CA
:102F100001EBC10202EB011100EB8100FDF72CFC7B
:102F200032462B46FDF76FFAFDF790FC60607CBDE2
:102F30009DF80500FDF720FC2A463346FDF70AFB05
:102F400006469DF803000D469DF8041000EBC002F4
:102F500002EB001001EB8000FDF70EFC32462B4621
:102F6000FDF751FAFDF772FC20607CBD7B14AE4783
:102F7000E17A843F5001002010B5BF2080F3118812
:102F8000BFF34F8FBFF36F8F02F0D2FA18B104492D
:102F90004FF080500860002080F3118810BD0000C1
:102FA00004ED00E00F4810B5016841F00101016037
:102FB00041680D4A1140416001680C4A11400160AE
:102FC000016821F480210160416821F4FE01416023
:102FD0004FF41F018160FFF7BDFE05494FF000600F
:102FE000086010BD001002400000FFF8FFFFF6FE71
:102FF00008ED00E008B501208DF8000002466946A2
:10300000002000F0FAF903208DF800000122694643
:10301000002000F0F2F908BD08B50021009102225D
:10302000694600F0C6F9BDF8000008BD38B5044691
:1030300001208DF8000002466946132000F0B9F91E
:103040009DF80000C00710D01420FFF7E5FF208096
:103050001620FFF7E1FF60801820FFF7DDFFA0805A
:103060001A20FFF7D9FFE080012038BD70B50E4D62
:103070004FF4805421462846FEF75EFB00F0F0F93D
:1030800061002846FEF758FB022001F07EF9214638
:103090002846FEF753FB022001F077F92146284627
:1030A000BDE87040FEF748BB000C014038B5012177
:1030B0000820FFF757FB4FF44054ADF800401020B4
:1030C0008DF803000320064D8DF80200694628465E
:1030D000FEF7A6FA21462846FEF730FB38BD000071
:1030E000000C014070B50E4D4FF480542146284627
:1030F000FEF722FB00F0B4F961002846FEF71EFB44
:10310000022001F042F921462846FEF717FB022073
:1031100001F03BF921462846BDE87040FEF70CBBA4
:10312000000C01402DE9F041984615460E46074631
:10313000002400F089F8012000EB4700C0B200F045
:103140004FF800F0C5F86F1E09E0BC4201D1002025
:1031500000E0012000F00EF83055641CE4B2AC42EF
:10316000F3D3B8F1010F03D1BDE8F04100F08EB800
:10317000BDE8F0812DE9F0478146002400F05AF9BE
:10318000DFF85880154F00254FF4805608F10808E5
:1031900031463846FEF7D0FA022001F0F6F8314603
:1031A0003846FEF7CBFA6006040ED8F8000080041B
:1031B00001D5641CE4B2012001F0E7F86D1CEDB20A
:1031C000082DE5D3B9F1000F04D0FFF74FFF2046DB
:1031D000BDE8F087FFF786FFF9E70000000C01402B
:1031E0002DE9F041054600F03BF9164F4FF48056AB
:1031F00031463846FEF7A0FA00244FF4005828065E
:103200004146384602D5FEF799FA01E0FEF794FAF6
:103210006806050E022001F0B8F831463846FEF780
:103220008DFA022001F0B1F831463846FEF784FAF3
:10323000022001F0AAF8641CE4B2082CDFD3BDE838
:10324000F0810000000C014070B500F009F90E4D4E
:103250004FF4005421462846FEF770FA66103146B6
:103260002846FEF76BFA042001F08FF82146284625
:10327000FEF762FA042001F088F831462846BDE8DE
:103280007040FEF759BA0000000C014070B500F024
:10329000E7F80E4D4FF4805421462846FEF74CFACD
:1032A000660031462846FEF747FA042001F06DF823
:1032B00021462846FEF742FA31462846FEF73EFAF6
:1032C000BDE87040042001F060B80000000C01402F
:1032D00070B5002400F0AEF8114D4FF400512846AF
:1032E000FEF72CFA012001F050F8AE1431462846C2
:1032F000FEF724FA012001F048F80948083006E0FA
:10330000641C052C03D9FFF7C1FF012070BD0168C3
:103310008904F5D431462846FEF70EFA002070BD28
:10332000000C01402DE9F041984615460E4607462F
:103330000024FFF789FF7806000EFFF751FFFFF723
:10334000C7FF06E0305DFFF74BFFFFF7C1FF641CCE
:10335000E4B2AC42F6D3B8F1010F03D1BDE8F041BD
:10336000FFF794BFBDE8F08108B500208DF800009C
:10337000FFF79CFE01226946122000F01AF89DF822
:1033800000004D2803D0002144280ED000E0012188
:10339000002001430BD0F62000F028F8002000F0B8
:1033A0001EF8FFF727FE012008BD0120F1E70020ED
:1033B00008BD37B514469DF800000D4640F080006A
:1033C0008DF800000023012269462920FFF7AAFF9B
:1033D0000123224629462920FFF7A4FE3EBD01B560
:1033E000012269460F2000F008F808BD01B501224E
:1033F0006946104600F001F808BD3EB50023009371
:1034000040F08000019302938DF8000001206B468C
:1034100005E00C1814F8014C1C54401CC0B290423A
:10342000F7D9521CD2B2012369462920FFF77AFF4F
:103430003EBD000008B501210820FFF793F94FF4C5
:103440000050ADF8000028208DF8030003208DF80F
:10345000020069460148FEF7E3F808BD000C014090
:1034600008B501210820FFF77DF94FF40050ADF8B1
:10347000000010208DF8030003208DF8020069463B
:103480000148FEF7CDF808BD000C014010B5094C0D
:103490000121204600F015F830B107490868401CAA
:1034A00008604868401C48602046BDE81040012183
:1034B00000F004B800040040EC000020C943018281
:1034C000704702460020138A92890B4202EA0102E9
:1034D00002D0002A00D00120704700002DE9F04101
:1034E0002A4C40F225552946204600F0ABF9012828
:1034F0004AD1204600F034FA254BC1B2012683F8A8
:103500006D1093F83870002003F13A02012F09D0B2
:10351000402930D083F86C0029462046BDE8F041B0
:1035200000F080B993F86C70B95493F86C10184F90
:10353000491CC9B2143F83F86C101E2907D300BF81
:1035400087F84E0083F86C0083F83800E4E7104AEF
:103550003932895C2329DFD10022991891F83AC0C9
:1035600003F802C0521CD2B281F83A00282AF4D9DA
:1035700083F83960E4E713F86C0F81541878401C25
:10358000187003F8346CC7E7BDE8F081004C0040C8
:10359000140200202DE9F0412A4C40F2255529461D
:1035A000204600F04FF901284AD1204600F0D8F912
:1035B000254BC1B2012683F86D1093F838700020B6
:1035C00003F13A02012F09D0402930D083F86C0072
:1035D00029462046BDE8F04100F024B993F86C700C
:1035E000B95493F86C10184F491CC9B2143F83F8B2
:1035F0006C101E2907D300BF87F84E0083F86C00BB
:1036000083F83800E4E7104A3932895C2329DFD196
:103610000022991891F83AC003F802C0521CD2B2A5
:1036200081F83A00282AF4D983F83960E4E713F8DE
:103630006C0F81541878401C187003F8346CC7E77D
:10364000BDE8F08100380140140200202DE9F04F60
:1036500040F2255585B029463A4800F0F3F8012894
:103660001BD1384800F07CF9374CAB46294684F82A
:103670006D00364800F0D6F894F83800002601288E
:1036800094F86D0004F13A050AD044284FD084F82C
:103690006C6059462B4800F0C5F805B0BDE8F08FC6
:1036A00094F86C10DFF8A090485594F86C00A9F1DC
:1036B0000409401CC0B284F86C002D2806D389F898
:1036C0003E6084F86C6084F83860E2E71E49A246E8
:1036D0003931405C0A28DCD11DA12846FCF7B4FD35
:1036E00080461CA12846FCF7AFFD014608F1010009
:1036F000A1EB08046F460546641EFCF7B7FD844243
:1037000006DD044604E000BF15F8010B07F8010BC5
:10371000641EF9D23E706846FCF7D2FD0E4908805F
:1037200089F83E608AF86C608AF83860B1E714F86E
:103730006C1F48552078401C2070012004F8340C80
:10374000A7E700000044004084020020004C004035
:103750003A0000006D6D2C00140100202DE9F041AD
:103760002E4C40F225552946204600F06BF80128E2
:1037700052D1204600F0F4F8294AC0B2002182F864
:103780006D0092F83870012302F13A06012F09D03A
:10379000552838D082F86C1029462046BDE8F04103
:1037A00000F040B892F86C70B85592F86C00401C6C
:1037B000C0B282F86C000A28EED9194892F83B6032
:1037C0007838532E02D0522E0DD013E092F840607C
:1037D00092F8417006EB072636B24680877A4FB9D9
:1037E000C680837206E092F8403092F8416003EBA5
:1037F000062383800A48243880F85E1082F86C1013
:1038000082F83810C8E712F86C1F88551078401CF1
:10381000107002F8343CBFE7BDE8F081004800407A
:10382000A40100200A0A01219140C9430180704788
:103830000029818902D041F4005101E021F40051B6
:103840008181704730B501F01F0201240025C1F3CA
:10385000421304FA02F2012B0FD0022B0FD0838AFD
:103860004FEA11210088134204FA01F400EA04002F
:1038700001D000B10125284630BD8389F0E7038AD5
:10388000EEE710B5C1F3421301F01F040121A1407E
:10389000012B07D0022B07D01430002A026805D074
:1038A0000A4304E00C30F8E71030F6E78A43026080
:1038B00010BD000030B50446008A85B00D464CF6B8
:1038C000FF710840E98801432182A1894EF6F31077
:1038D0000140A8882A8910436A890A431043A081BD
:1038E000A08A4FF6FF410840A9890143A18268469A
:1038F000FEF744FF1948844201D1039800E0029882
:10390000A189090400EBC00101EB0010296801D571
:10391000490000E08900B0FBF1F06422B0FBF2F155
:1039200009010B096FF018056B4300EB8300A389B5
:103930001D044FF0320306D503EBC000B0FBF2F0DC
:1039400000F0070005E003EB0010B0FBF2F000F020
:103950000F000843208105B030BD00000038014051
:103960008088C0F308007047FEE7000008B56420B7
:1039700000F0F0FCFDF7E6FEFFF796F811A000F06E
:103980004DFBFFF7F1FCFEF77BFEFEF78DFE00F02E
:1039900051F9012000F01CF8022000F019F8032072
:1039A00000F016F8042000F013F801200322009024
:1039B000042311460020FDF729FCBDE808406420DF
:1039C00000F0C8BC726573746172740A0000000074
:1039D00010B5644C207000F0EDF8B42804D062A05B
:1039E00000F01CFB012010BD012140F2072000F077
:1039F000FDF801214FF4027000F0F8F80021962044
:103A000000F0F4F8FD21972000F0F0F80021E32009
:103A100000F0ECF80421E42000F0E8F80221E520B1
:103A200000F0E4F80121E62000F0E0F80321E720AF
:103A300000F0DCF80221F52000F0D8F80521D920AB
:103A400000F0D4F8CE21DB2000F0D0F80321DC20F8
:103A500000F0CCF8F821DD2000F0C8F800219F200C
:103A600000F0C4F83C21A32000F0C0F80021B720EA
:103A700000F0BCF83C21BB2000F0B8F80921B220CE
:103A800000F0B4F80921CA2000F0B0F801214FF489
:103A9000CC7000F0ABF817214FF4D87000F0A6F806
:103AA000002140F2AD1000F0A1F80521FF2000F048
:103AB0009DF805214FF4807000F098F8052140F240
:103AC000991000F093F81B214FF4D37000F08EF89A
:103AD0003E214FF4D67000F089F81F2140F2A71064
:103AE00000F084F80021302000F080F8102111202F
:103AF00000F07CF830214FF4857000F077F8462113
:103B00003F2000F073F8FF21312000F06FF86321AF
:103B1000402000F06BF801212E2000F067F8092109
:103B20001B2000F063F831213E2000F05FF82421D3
:103B3000142000F05BF82078012806D0022806D077
:103B4000032806D0042806D009E0642104E02821D7
:103B500002E0192100E05521242000F047F8002060
:103B600010BD0000F4000020320D0A0030B5040A38
:103B7000C5B200F0BBF9522000F09FF900F0CAF97D
:103B8000204600F09AF900F0C5F9284600F095F9B2
:103B900000F0C0F900F0AAF9532000F08EF900F00F
:103BA000B9F900F076F9024600F06AF900F0A9F9D7
:103BB000104630BD0020FFF7D9BF10B54D20FFF7EC
:103BC000D5FFC007FAD00121182000F00FF84F20D0
:103BD000FFF7CCFF4007FAD56220FFF7C7FF044686
:103BE0000721152000F002F8204610BD70B50E46E2
:103BF000040AC5B200F07AF9522000F05EF900F034
:103C000089F978B9204600F058F900F083F9284680
:103C100000F053F900F07EF9304600F04EF900F064
:103C200079F918B100F06DF9012070BD00F069F963
:103C3000002070BD2DE9F84F01211D20FEF792FDF7
:103C400001212B48FDF73EFD14208DF803000324CD
:103C5000DFF8A0808DF802404FF48075ADF8005079
:103C600069464046FDF7DCFCDFF88C904FF4D876CF
:103C7000ADF8006069464846FDF7D2FCDFF87CA04D
:103C80004FF43077ADF8007069465046FDF7C8FC38
:103C900029464046FDF752FD31464846FDF74EFDA8
:103CA00039465046FDF74AFD04268DF803608DF82D
:103CB000024048F24800ADF8000069464846FDF76A
:103CC000AFFCADF8005069465046FDF7A9FC0C4A20
:103CD0000120107000F015F90220107000F011F9A9
:103CE000147000F00EF9167000F00BF9BDE8F88FB3
:103CF0000002300000080140000C014000100140AB
:103D0000F40000200E480F49007801280BD002284B
:103D10000DD00D4903280FD0042803D1486940F481
:103D2000007048617047086840F0800002E0086851
:103D300040F0100008607047486940F04000F0E72C
:103D4000F4000020140C0140001001400E480F49FF
:103D5000007801280BD002280DD00D4903280FD080
:103D6000042803D1086940F40070086170470868AE
:103D700040F0800002E0086840F0100008607047E2
:103D8000086940F04000F0E7F4000020100C01400A
:103D9000001001400F481049007801280BD002287C
:103DA0000DD0032810D0042804D10C48016841F438
:103DB000807101607047086840F4807002E0086814
:103DC00040F02000086070470548416941F08001DB
:103DD00041617047F4000020140C014014080140B8
:103DE000001001400F481049007801280BD002282C
:103DF0000DD0032810D0042804D10C48016841F4E8
:103E0000807101607047086840F4807002E00868C3
:103E100040F02000086070470548016941F08001CA
:103E200001617047F4000020100C014010080140AF
:103E3000001001400E480F490078012807D00228E1
:103E400007D0032809D004280CD000207047086848
:103E50000AE00868C0F34010704707488068C0F364
:103E6000C010704705480068C0F30020704700008C
:103E7000F4000020080C0140001001400808014037
:103E800000B5FFF7AFFFFFF761FF5DF804EBFFF749
:103E900039BF00B5002213465006020EFFF756FF49
:103EA000FFF7C8FF08B1521CD2B2FFF72BFF5B1C13
:103EB000DBB2082BF0D3104600BD00B5034600224C
:103EC000180602D5FFF78EFF01E0FFF763FFFFF74B
:103ED0003DFFFFF717FF072A01D1FFF783FF5806C1
:103EE000521C030ED2B2082AEAD300BD00B5FFF778
:103EF0002DFFFFF777FFFFF74DFF5DF804EBFFF7AE
:103F000001BF00B5FFF746FFFFF720FF5DF804EBA8
:103F1000FFF768BF00B5FFF765FFFFF717FFFFF773
:103F200089FF08B1012200E00022FFF7EBFE1046F6
:103F300000BD0000054900200870887048701439E1
:103F40004880C8808872C88108817047400100207D
:103F50002DE9F041304C0E46054620212046FDF764
:103F6000EBFB10212046FDF7E7FB7E2000EA45072A
:103F7000082538064FF04001204602D5FDF7DEFB4C
:103F800001E0FDF7D9FB022000F0FFF920212046D7
:103F9000FDF7D4FB022000F0F8F97806070E202187
:103FA0002046FDF7C9FB022000F0EFF96D1E15F069
:103FB000FF05DED1082530064FF04001204602D52E
:103FC000FDF7BCFB01E0FDF7B7FB022000F0DDF9D7
:103FD00020212046FDF7B2FB022000F0D6F9700642
:103FE000060E20212046FDF7A7FB022000F0CDF9A8
:103FF0006D1E15F0FF05DED120212046FDF79EFB4A
:10400000022000F0C2F910212046FDF797FBBDE821
:10401000F041022000F0B9B9000801400FB4054B8F
:1040200010B503A9044A029800F044F810BC5DF8EA
:1040300014FB00008D440008E80000200FB4084B7A
:1040400010B504A902AA039800F034F8044602A9A6
:10405000002000F00BF9204610BC5DF814FB0000B6
:104060006D42000800487047FC00002001480068CD
:1040700070470000FC00002002E008C8121F08C1C1
:10408000002AFAD170477047002001E001C1121FD9
:10409000002AFBD17047000001490860704700000A
:1040A000FC00002030380A2801D20120704700208F
:1040B000704700002DE9FF4F8BB09A460F4605462A
:1040C000002606E025280BD052460D9990476D1C1E
:1040D000761C28780028F5D10FB03046BDE8F08F67
:1040E0000024A0460122604900E0044315F8013F86
:1040F000203B02FA03F00842F7D128782E2817D186
:1041000015F8010F44F004042A280ED06FF02F0296
:104110002878A0F1300109290AD808EB880102EBC0
:10412000410100EB01086D1CF2E757F8048B6D1C90
:10413000287869283ED006DC0028CDD063280BD033
:10414000642804D136E0732810D075284BD052462D
:104150000D999047761C85E017F8040B8DF8000048
:1041600000208DF80100E946012003E057F8049B88
:104170004FF0FF3061074FF0000401D40AE0641CE7
:1041800044450DDA8442FADB19F804100029F6D10F
:1041900006E0641C8442FCDB19F804100029F8D105
:1041A000264404E019F8010B52460D999047641E0D
:1041B000F8D257E001CF4FF00A0B002802DA404254
:1041C0002D2102E0210504D52B218DF82410012199
:1041D00003E0E10705D02021F7E70DF12009089160
:1041E0000CE00021F9E701CF4FF00A0BF9E759463F
:1041F000FCF75CFB01F1300209F8012D0028F6D133
:10420000ADEB090000F1200B600701D44FF001086D
:10421000D84502DDA8EB0B0000E00020804600241A
:1042200006E009A85246005D0D999047641C761C73
:1042300008988442F5DB04E0302052460D999047FF
:10424000761CB8F10001A8F10108F5DC05E019F8C9
:10425000010B52460D999047761CBBF10001ABF162
:10426000010BF4DC6D1C34E7092801000A68531CBB
:104270000B601070704730B583B00446FFF7F6FE50
:1042800005460020CDE90000024621466846FCF7BD
:1042900070FB2846FFF700FFDDE9000103B030BDE9
:1042A0009CB0204C2078401C2070642000F0E4FE7C
:1042B00020780528F6D3FDF78FFA1B4802ADB0F938
:1042C0000820B0F90610CDE90012B0F90430B0F9B9
:1042D000022016A1281DFFF7B1FE00231A4602A9ED
:1042E000606E00F0D7FF04210320CDE90001022316
:1042F00001220EA1281DFFF7A1FE00231A4602A9E4
:10430000606E00F0C7FF00231A4602A9606E00F03D
:10431000C1FF012802D00CA0FFF780FE0020207012
:10432000C0E7000014000020140100204C463A258C
:1043300064204C423A25642052463A256420524279
:104340003A25640A000000005175657565204675C0
:104350006C6C0A0000B502464FF47A7302E018460E
:1043600000F003F8521EFAD200BD00EBC000C100FD
:104370004FF0E02041610021816105210161016967
:10438000C903FCD504210161704700EBC00202EBB8
:1043900000104FF6FF72002102EA800002E000BF29
:1043A000491C89B28142FAD37047000030B50C4CE9
:1043B000A4F10E025169558834F81130EB1A034408
:1043C0001BB2538024F81100491C01EBD17020F07E
:1043D0000100081A506103EBD370401030BD00009B
:1043E0002200002030B50C4CA4F11802D169958848
:1043F00034F81130EB1A03441BB2938024F81100F7
:10440000491C01EBD17020F00100081AD06103EBC8
:10441000D370401030BD00002C00002030B50C4C93
:10442000A4F12002516AD58834F81130EB1A034404
:104430001BB2D38024F81100491C01EBD17020F08D
:104440000100081A506203EBD370401030BD000029
:104450003400002030B50C4CA4F12802D16A158933
:1044600034F81130EB1A03441BB2138124F8110005
:10447000491C01EBD17020F00100081AD06203EB57
:10448000D370401030BD00003C00002013490A7872
:10449000C1B2022A04D0032A09D0042A16D00DE0A2
:1044A0000F4A13885B06FCD50D4A121D05E00D4A24
:1044B00013885B06FCD50B4A121D11800A4A13882B
:1044C0005B06FCD5084A121D11807047074A138805
:1044D0005B06FCD5054A121DEFE70000E400002052
:1044E000004400400048004000380140004C0040BB
:1044F0002DE9FC41FFF73AFAFFF71CFD00F0F0F858
:1045000000226821142000F057FE38490425AF012D
:10451000486601F13C00CDE9005000233A4634A141
:10452000364800F0D7FF314905203831CDE9000188
:1045300000233A4632A1354800F0CCFF2B48012435
:104540004030CDE900400023802231A1334800F003
:10455000C1FF264903204431CDE9000100233A463A
:104560002FA1324800F0B6FF204802264830CDE99E
:104570000060002380222EA1304800F0ABFF1B48D2
:1045800000234C30CDE900603A462DA1304800F0C0
:10459000A1FF164800235030CDE9004080222DA114
:1045A0002F4800F097FF114800235430CDE9004018
:1045B00080222CA12E4800F08DFF0C48002358309B
:1045C000CDE900403A462BA12D4800F083FF074873
:1045D00000235C30CDE9005080222AA12C4800F055
:1045E00079FF00F07FFD0020BDE8FC811400002071
:1045F0006D6F74696F6E5F7461736B009546000830
:104600006D6F746F725F7461736B0000A146000878
:1046100062617369635F7461736B0000A14200089B
:104620004D50555F7461736B000000000119000864
:104630004D61737465725F7461736B00051A0008D5
:104640004D697373696F6E5F68616E646C6572004B
:10465000ED1A00087463735F7461736B00000000EF
:10466000594F00087263635F7461736B0000000050
:10467000594C00084C617A65725F7461736B00007D
:104680006518000853656E6465725F7461736B0032
:10469000792A0008FEF7B8FB0A2000F0EDFCF9E7E4
:1046A0000E4C0120FDF7D4FD0120FEF713FC052080
:1046B00000F0E2FC0220FDF7CBFD0220FEF70AFC31
:1046C000052000F0D9FC94F844000128E9D1A16A42
:1046D000A06CFBF702FEA064E3E70000500100209D
:1046E00070B5254C002601252846FEF787FBB42827
:1046F00001DD002502E0FFF759FEE0800220FEF711
:104700007DFBB42801DD002502E0FFF76BFE208170
:104710000320FEF773FBB42801DD002502E0FFF75C
:104720007DFE60800420FEF769FBB42805DCFFF7FE
:1047300091FEA0800DB1761CB6B26420FFF70AFE90
:10474000142ED0D3B4F90200C0F13D006081B4F959
:104750000400C0F13D00A081B4F90600C0F13D00A5
:10476000E081B4F90800C0F13D002082BDE870404E
:104770006420FFF7EFBD0000140100202DE9F04197
:104780001E4C0F460546E6682068001D00F0F4FB4D
:1047900038B9206890F82C100120884021698143A5
:1047A0002161681C15D1A7B115492268486890603D
:1047B00023688268DA6022688368121D5A60226862
:1047C000121D8260206841610868401C0860BDE8D5
:1047D000F08120683544B5424560216805D2E06B20
:1047E000BDE8F041091D00F0E8BBA06B091D00F019
:1047F000E4FBA06A8542EAD2A562E8E7A4000020B3
:10480000BC4700202DE9F041054600F0EFFB364C97
:10481000A068401CA0602068344F10B1606940B3AC
:104820002DE02560A068012829D1002606EB86002E
:1048300007EB800000F0B3FB761C052EF6D32B4867
:10484000643000F0ACFB2948783000F0A8FB274822
:104850008C3000F0A4FB2548A03000F0A0FB2348DA
:10486000B43000F09CFB21486430A0631430E06356
:1048700005E02068E96AC06A884200D82560606A5D
:104880000121401C6062E86A226981401143216174
:1048900000EB800007EB80004068A8608168E96059
:1048A0008268291D51608160E86A00EB800007EB97
:1048B0008001696157F82010491C47F8201000F06A
:1048C000A3FB606900280CD02068E96AC06A8842AE
:1048D00007D207494FF080500860BFF34F8FBFF3F6
:1048E0006F8FBDE8F0810000A40000200847002081
:1048F00004ED00E030B4026C0B46002A0BD0C16816
:104900001144C1608468A14201D30168C16030BC18
:104910001846FBF775BC30BC70472DE9F041856B3C
:10492000164604460027026CFAB17EB1E068FBF738
:1049300067FCE168206C091AE1602268914202D2AA
:10494000A168081AE060022E0DD00EE06068FBF747
:1049500057FC216C606808446060A168884204D3F9
:104960002068606001E005B16D1E6D1CA5633846CE
:10497000BDE8F08110B50446006B00F04FFB204607
:10498000BDE8104000F04ABB0E484FF48841420792
:1049900006D0C01D0B4920F00700411AC1F588411F
:1049A000094A00230144C2E900030839143A21F0FE
:1049B000070111604B600B600B1AC0E90013936094
:1049C000536070470803002098000020144E154CD7
:1049D000A6F1A0074FF08058DFF84C9012E000BF1E
:1049E00000F004FBF068C568281D00F0C5FAA06857
:1049F000401EA0606068401E606000F005FB284615
:104A0000FFF7B8FF60680028EAD138680128F9D9B3
:104A1000C9F80080BFF34F8FBFF36F8FF2E700003C
:104A2000A8470020A400002004ED00E02DE9F04795
:104A30009946DDE9096480466FF00303206B03EBC0
:104A40008202089D104420F0070761B1002023185E
:104A50000A5C83F834200A5C12B1401C1028F6D39B
:104A6000002084F84300052D00D30425201DE562B5
:104A700000F0A0FA04F1180000F09CFA2461C5F1DE
:104A800005006462A0614A464146384600F0D2F80B
:104A90002060002E00D03460BDE8F08730B51149A9
:104AA00000E011460A688242FBD34B685C188442DE
:104AB00003D1406818444860084643681C18944273
:104AC00009D1084C143C2468A24209D052681A4407
:104AD00042600A6812680260814200D0086030BDFE
:104AE0000460F9E79800002010B5044600F07EFA53
:104AF000A06B28B15FF0000400F086FA204610BDDC
:104B00000124F9E70548816B096821B1816BC96807
:104B10000968816270474FF0FF31FAE7A400002076
:104B2000BF2080F31188BFF34F8FBFF36F8FFEE775
:104B30002DE9F041044600F059FA94F9455004F18A
:104B4000240609E0606A48B1304600F083FD08B1F0
:104B500000F0B2FA6D1E6DB2002DF3DC4FF0FF369F
:104B600084F8456000F050FA00F040FA94F944509F
:104B700004F1100709E0206948B1384600F06AFDE9
:104B800008B100F099FA6D1E6DB2002DF3DC84F8C7
:104B90004460BDE8F04100F037BA000070B504464B
:104BA000002600F0C7FA224D286808B9FFF7ECFE8E
:104BB000CCB304F00700C0F11000C1438C4232D8DE
:104BC000211800292FDD686881422CD8184814303C
:104BD0000246146801E02046144662688A4202D206
:104BE0002268002AF7D12A6894421CD006682268FD
:104BF000026060680836421A102A04D960184260C0
:104C00006160FFF74BFF61686868401A6860AA68D6
:104C1000904200D2A86041F0004060600020206017
:104C2000E868401CE86000F079FD304670BD000087
:104C30008400002010B5031F4FF080741C601B1F00
:104C400021F001011960191F024B0B601439403823
:104C50000A6010BD214B00089C4C9AB06E46A4F12E
:104C60000A059B495220FDF76FFC6870262806D084
:104C7000FDF794FCFDF754FBFDF756FBF1E7944874
:104C8000FDF75FFB68702628EBD19148FDF7C6FC65
:104C900068702628E5D18D490520FDF72FFC687046
:104CA000E07865287ED120796E28FBD160793128A3
:104CB00012D1A079FE2876D186A1301DFFF7BEF96A
:104CC00000231A466946686E00F0E4FAE078652829
:104CD000E8D120796E28E5D16079322812D1A07907
:104CE000FE28DFD17DA1301DFFF7A8F900231A4669
:104CF0006946686E00F0CEFAE0786528D2D1207956
:104D00006E28CFD16079332812D1A079FE28C9D17D
:104D100074A1301DFFF792F900231A466946686EA8
:104D200000F0B8FAE0786528BCD120796E28B9D1B6
:104D30006079342812D1A079FE28B3D16BA1301D3F
:104D4000FFF77CF900231A466946686E00F0A2FA64
:104D5000E0786528A6D120796E28A3D1607935281E
:104D600012D1A079FE289DD162A1301DFFF766F90E
:104D700000231A466946686E00F08CFAE0786528D0
:104D800090D120796E280DD16079362815D1A0797F
:104D9000FE2807D159A1301DFFF750F900231A460C
:104DA000694601E084E04DE0686E00F073FAE07857
:104DB00065287DD120796E287FD16079372812D17E
:104DC000A079FE2879D14FA1301DFFF737F90023D4
:104DD0001A466946686E00F05DFAE07865286CD185
:104DE00020796E2869D16079382812D1A079FE28FF
:104DF00063D146A1301DFFF721F900231A46694609
:104E0000686E00F047FAE078652856D120796E2860
:104E100053D16079392812D1A079FE284DD13DA116
:104E2000301DFFF70BF900231A466946686E00F043
:104E300031FAE078652840D120796E283DD160793B
:104E400031283AD1A079302812D134A1301DFFF792
:104E5000F5F800231A466946686E00F01BFAE07800
:104E600065282AD120796E2827D16079312824D16C
:104E7000A079312812D12BA1301DFFF7DFF80023D4
:104E80001A466946686E00F005FAE078652814D184
:104E900020796E2811D1607931280ED1A07932287D
:104EA0000BD122A1301DFFF7C9F800231A4600E0FC
:104EB00003E06946686E00F0EDF9FDF706FB64203B
:104EC00000F0DAF8FDF76AFBCBE600001E000020D8
:104ED00000010020217C317C0A000000217C327C12
:104EE0000A000000217C337C0A000000217C347C15
:104EF0000A000000217C357C0A000000217C367C01
:104F00000A000000217C377C0A000000217C387CEC
:104F10000A000000217C397C0A000000217C31302D
:104F20007C0A0000217C31317C0A0000217C313276
:104F30007C0A000070B514460D460646FBF7A2FC3D
:104F400001D2284670BD21463046FBF7A5FC01D2B0
:104F5000204670BD304670BD01210648FEF766F858
:104F6000044904480839FDF751FC282000F084F872
:104F7000F2E700007C000020D0E9013201699A606C
:104F8000D0E901235A604A68824201D182684A60AE
:104F9000002202610868401E08600868704700F13E
:104FA00008014FF0FF32C0E90112C1600161002128
:104FB0000160704700210161704730B50B685A1CD1
:104FC00002D000F1080202E0026904E022465468BF
:104FD00025689D42FAD953684B6099608A60516098
:104FE00008610168491C016030BD0000BF2080F3EA
:104FF0001188BFF34F8FBFF36F8F02480168491CC0
:1050000001607047A000002003490868401E086046
:1050100001D180F311887047A000002070B50028EE
:105020001BD0A0F108046068002816DA2168002966
:1050300013D120F00040606000F07CF8074D6068FC
:105040006968084468602046FFF728FD2869401C0D
:105050002861BDE8704000F061BB70BD8400002095
:105060004FF0E02000210161816102494161072187
:10507000016170473F19010010B5020009D000F02E
:1050800059F800211046FFF779FB00F047FB002894
:1050900007D104494FF080500860BFF34F8FBFF332
:1050A0006F8F10BD04ED00E002490A6A0260C96812
:1050B00041607047A400002001490120C861704789
:1050C000A400002010B50C46054909681831FFF707
:1050D00074FF2046BDE810400121FFF74FBB0000E0
:1050E000A40000207CB50F480025CDE900502B46D8
:1050F00080220DA10E4800F0EDF90A4C2C3C01284D
:105100000ED1BF2080F31188BFF34F8FBFF36F8F95
:105110004FF0FF30A06201206061E56000F034F8DC
:10512000206B7CBDD000002049444C4500000000AD
:10513000CD4900080248416B491C4163704700009B
:10514000A40000200E48416B11B10121C1617047DC
:105150000021C16101690B4AB1FA81F1C1F11F015E
:1051600001EB810102EB810101F108034A685268F9
:105170004A609A4201D152684A60D1680160704722
:10518000A400002008470020094810B5016841F438
:105190007F010160016841F07F410160FFF760FF1E
:1051A000044900200860FAF7DFFF002010BD00006E
:1051B00020ED00E0A000002070B50E4605004FF085
:1051C000000418D0601EB0FBF5F0B04213D305FB0D
:1051D00006F010F1490F0ED84830FFF7DFFC04004D
:1051E00009D004F1480120463EB10160C0E90F56E4
:1051F000012100F005F8204670BD0060F6E70000D0
:105200002DE9F0410F4604004FF001063CD0E06B61
:10521000C8B3B51EB5FBF0F1206C814234D3FFF763
:10522000E5FED4E90F20216802FB0011A1600021F6
:10523000A163216861600A46D4E90F01401E00FBAA
:1052400001212046E16000F8445F457004F1100040
:105250004FB1FFF7A4FE04F12400FFF7A0FE00BF4A
:10526000FFF7D2FE11E021690029F9D000F0F2F930
:105270000028F5D006494FF080500860BFF34F8FEB
:10528000BFF36F8FECE7FFE700263046BDE8F08103
:1052900004ED00E02DE9FF4700273B4E82B0994620
:1052A0008A460446B8464FF0805500BFFFF79EFE81
:1052B000A06BE16B884206D3B9F1020F03D00498CA
:1052C000C0B1D7B11DE04A4651462046FFF725FB45
:1052D000616A19B104F1240000F0BCF920B1356015
:1052E000BFF34F8FBFF36F8FFFF78EFE012006B025
:1052F000BDE8F087FFF788FE21E06846FFF7D4FE9F
:105300000127FFF781FEFFF715FFFFF76FFE94F906
:105310004400401C01D184F8448094F94500401CAD
:1053200001D184F84580FFF76FFE04A9684600F0BC
:10533000A5F830B12046FFF7FBFB00F0EFF90020A5
:10534000D5E7FFF753FEA06BE16B884213D1FFF75F
:105350005BFE04F110000499FFF7B4FE2046FFF74E
:10536000E7FB00F0DBF90028A0D13560BFF34F8FD9
:10537000BFF36F8F9AE7FFF747FE2046FFF7D8FB92
:1053800000F0CCF992E7000004ED00E02DE9F747CA
:105390000026DFF8E48083B08A460446B1464FF029
:1053A000805700BFFFF722FEA56BC5B151462046CE
:1053B000FFF7A0FA6D1EA563206950B104F110003B
:1053C00000F048F928B1C8F80070BFF34F8FBFF361
:1053D0006F8FFFF719FE012006B0BDE8F087059832
:1053E00008B11EB106E0FFF70FFE27E06846FFF7A1
:1053F0005BFE0126FFF708FEFFF79CFEFFF7F6FDB8
:1054000094F94400401C01D184F8449094F945007B
:10541000401C01D184F84590FFF7F6FD05A96846C8
:1054200000F02CF8002820460AD0FFF781FB00F09E
:1054300075F92046FFF758FB0028B3D00020CBE7D2
:10544000FFF752FB90B104F124000599FFF73AFEF3
:105450002046FFF76DFB00F061F90028A2D1C8F8E3
:105460000070BFF34F8FBFF36F8F9BE72046FFF7AE
:105470005FFB00F053F995E704ED00E02DE9F04102
:105480000C460546FFF7B2FD114EF2686B682168C5
:10549000D01A4F1C0AD02F68D6F820C000266745C6
:1054A00006D0934204D8012526600BE0002509E0D0
:1054B000814205D9081A20602846FFF7F5FDF5E777
:1054C00001252660FFF7A0FD2846BDE8F081000019
:1054D000A40000202DE9FF5F8346DDE90E87994691
:1054E00016468A469000FFF759FB05001DD04C2058
:1054F000FFF754FB040015D04C21FAF79AFE256300
:105500000021CDE90241CDE900874B4632465146A4
:105510005846FFF78BFA2046FFF774F9012004B0D4
:10552000BDE8F09F2846FFF779FD4FF0FF30F6E722
:105530002DE9F041454C0026606B28B1A069401C64
:10554000A0613046BDE8F081E5686D1CE56008D1DA
:10555000A06BE16BA163E063206A401C2062FFF74F
:10556000D1FAA16A3A488D420FD34FF0000EA16BD9
:10557000096839B1A16BC968C9684A68954212D2F5
:10558000A26202E04FF0FF31A1622168C96A01EB1B
:10559000810150F82100012800D90126E069002886
:1055A000CFD00126CDE7D1E902724B69BA60D1E9CB
:1055B00002277A605F680A1D974201D1CF685F6059
:1055C000C1F814E01F687F1E1F60D1F828C0BCF12D
:1055D000000F15D0D1E907379F60D1E907377B600D
:1055E000DCF8047001F118039F4202D10B6ACCF879
:1055F0000430C1F828E0DCF800305B1ECCF8003045
:10560000CB6A0127D4F810C09F4047EA0C072761F6
:1056100003EB830300EB83035B688B609F68CF60C1
:105620009F687A609A60CA6A02EB820200EB82038A
:105630004B6150F822305B1C40F82230C96A226866
:10564000D26A914293D9012691E70000A40000207C
:105650000847002070B5C068C068D0E90732816A89
:105660009A60D0E907235A604B6800F11802934210
:1056700001D1036A4B60002383620C68641E0C60D6
:1056800024494D6B01249DB1234D6B68C3619E6815
:1056900006629E6872609A6085622A68521C2A605F
:1056A000C06A0A68D26A904232D90120CC6170BDCA
:1056B000D0E902654269B560D0E902567560566866
:1056C000051DAE4201D1C6685660436113685B1E7A
:1056D0001360C26A0E6904FA02F333430B610E4B86
:1056E00002EB82028C3B03EB820252688260966876
:1056F000C660966875609560C26A02EB820203EB31
:105700008205456153F822506D1C43F82250C7E7CB
:10571000002070BDA4000020944700202DE9F04136
:1057200000242746FFF762FC3F4D686B401E68630C
:10573000686B002872D1A8683C4B00264FF0010826
:10574000F0BB6BE0D868C468D4E90721A06A916017
:10575000D4E907125160426804F118018A4201D16C
:10576000216A4160A6620168491E0160D4E90221F4
:1057700060699160D4E9021251604268211D8A4239
:1057800001D1E268426066610268521E0260E26A0C
:10579000D5F810C008FA02F040EA0C00286102EBCC
:1057A0008200224A8C3A02EB80004068A060D0F868
:1057B00008C0C4F80CC0D0F808C0CCF8041000E051
:1057C00012E08160E06A00EB800002EB8001616121
:1057D00052F82010491C42F82010E06A2968C96A72
:1057E000884201D3C5F81C8018680028AAD10CB1E2
:1057F000FFF788F9AC693CB1FFF79AFE08B1C5F82C
:105800001C80641EF8D1AE61E86938B108490127EF
:1058100038070860BFF34F8FBFF36F8FFFF7F4FBBC
:105820003846BDE8F0810000A40000209447002025
:1058300004ED00E0004040404040404040404141D5
:105840004141414040404040404040404040404055
:1058500040404040400502020202020202020202EF
:1058600002020202022020202020202020202002EC
:10587000020202020202909090909090101010107C
:105880001010101010101010101010101010101018
:1058900002020202020288888888888808080808AC
:1058A0000808080808080808080808080808080878
:1058B000020202024000000035580008DC580008CF
:1058C000000000200001000078400008DC590008BA
:1058D00000010020D04A00008840000802040608A9
:1058E0000000000001020304010203040607080986
:1058F00000000000000000000000000000010000A7
:105900000000000000000000000000000000000097
:105910000000000000000000000000000000000087
:105920000000000000000000000000000000000077
:105930000000000000000000000000000000000067
:105940000000000000000000000000000000000057
:105950000000000000000000000000000000000047
:105960000000000000000000000000000000000037
:10597000000000000000000000000000AAAAAAAA7F
:105980000000000000000000000000000000000017
:105990000000000000000000000000000000000007
:1059A00000000000000000000000000000000000F7
:1059B00004000000000000000000000000000000E3
:1059C00004000000000000000000000000000000D3
:0C59D000010000000000000000000000CA
:0400000508000131BD
:00000001FF
