:020000040800F2
:10000000384C0020DD010008BD220008D11700088F
:10001000911B0008CD1000085D3A000800000000A8
:100020000000000000000000000000004501000882
:100030003116000800000000890100086D3000083A
:10004000F7010008F7010008F7010008F7010008B0
:10005000F7010008F7010008F7010008F7010008A0
:10006000F7010008F7010008F7010008F701000890
:10007000F7010008F7010008F7010008F701000880
:10008000F7010008F7010008F7010008F701000870
:10009000F7010008F7010008F7010008F701000860
:1000A000F7010008F7010008F7010008F701000850
:1000B000F701000881350008F7010008F701000882
:1000C000F7010008F7010008F7010008F701000830
:1000D000F701000889360008413700085138000848
:1000E000F7010008F7010008F7010008F701000810
:1000F000F7010008F7010008F7010008F701000800
:10010000F7010008F7010008F7010008F7010008EF
:10011000D1350008F7010008F7010008F7010008D1
:10012000F7010008F7010008F7010008F7010008CF
:10013000DFF80CD000F064FD00480047ED4C0008EB
:10014000384C0020224B19680868B0E8F00F80F3A3
:100150000988BFF36F8F4FF0000080F311884EF0D5
:100160000D0E70470000000006480068006880F32C
:10017000088862B661B6BFF34F8FBFF36F8F00DFA1
:1001800000BF00BF08ED00E0EFF30980BFF36F8F01
:100190000F4B1A6820E9F00F106008B54FF0BF0050
:1001A00080F31188BFF34F8FBFF36F8F05F0C6FA4E
:1001B0004FF0000080F31188BDE808401968086816
:1001C000B0E8F00F80F30988BFF36F8F704700BF6E
:1001D000A4000020EFF30580704700000648804728
:1001E00006480047FEE7FEE7FEE7FEE7FEE7FEE71C
:1001F000FEE7FEE7FEE7FEE7993000083101000860
:1002000040EA01039B0703D009E008C9121F08C098
:10021000042AFAD203E011F8013B00F8013B521E18
:10022000F9D27047D2B201E000F8012B491EFBD28F
:1002300070470022F6E710B513460A4604461946F1
:10024000FFF7F0FF204610BD30B505462A460B46A5
:1002500012F8010B13F8014B08B1A042F8D01CB101
:10026000002802D06D1CF1E7284630BD421C10F872
:10027000011B0029FBD1801A7047000070B50F4D9B
:1002800000B92868002412E00A4602E09E4203D02A
:10029000521C1378002BF9D1DAB2224305D02BB1CE
:1002A00024B1002100F8011B04E00446401C06783C
:1002B000002EE9D12860204670BD0000F800002023
:1002C00070B5064603F048FF046805460A2200217F
:1002D000304600F0B1FB2C6070BDF0B480EA010242
:1002E000D40F4200B2EB410F02D20246084611463B
:1002F0004A0042D0C30DDDB2C1F3C752AD1A202D62
:1003000035DAC1F3160141F4000204B15242C5F1DD
:10031000200602FA06F12A411044B3EBD05F23D045
:10032000C4B1012DA0EBC35009DCF0BC4FF000427A
:1003300002EAC352DBB200F5000000F0BEBB400091
:1003400000F1807000EBC350A0F1807040EAD170E2
:10035000490009E0490841EAC071A0EBC35000F52B
:100360000000400800EBC350F0BC00F09DBB6142B0
:10037000012202EB4101001BF6E7F0BC704781F05F
:100380000041AAE780F00040A7E780EA010210B52B
:1003900002F00043400022D04A001FD0010E01EBC2
:1003A0001261C0F35600C2F3560240F4000042F45A
:1003B0000002A0FB022000047F39140400D0401C7E
:1003C00050EA124001D44000491EC2B20C0604EBB0
:1003D000D010401C4008802A02D003E0002010BD4D
:1003E00020F00100002900DA0020184310BD42006F
:1003F00005D0C0F3C7525242914201DC0020704741
:1004000000EBC15070472DE9FE4F804681EA0300A2
:10041000C00F0C46009021F0004123F00045B8EBDE
:100420000200A94105D24046214690461C460B4693
:10043000024623F00040104347D0270DC7F30A00BF
:10044000C3F30A510290401A019040286BDAC3F3BB
:10045000130040F4801B0098924620B10023D2EB99
:10046000030A63EB0B0B01985946C0F1400250465A
:1004700000F063FA06460D4650465946019A00F0D0
:100480007BFA10EB08006141002487EA115284EAEC
:10049000E7731A4340D0009A62B3019A012A4FEAE7
:1004A000075215DC001B61EB02014FF0004202EA2B
:1004B0000752CDE90042001C41F5801132462B461F
:1004C00000F038FB03B0BDE8F08F40462146F9E765
:1004D000001B61EB0201001C41F5801300185B4119
:1004E0002018A2F5001747EB030140EAD570B619B2
:1004F0006D4111E06D084FEA360645EAC0754FEAD6
:100500000752001B61EB0201001C41F580114908F4
:100510004FEA30000019514132462B4603B0BDE886
:10052000F04F00F0F8BA0098012240000023D0EB11
:10053000020263EBE073009821464FEAE074B8EBE7
:10054000000061EB0401E9E783F000435BE781F021
:10055000004158E72DE9FE4F81EA030404F000440E
:1005600021F0004100944FF0000B23F0004350EACB
:1005700001045ED052EA03045BD0C3F30A54C1F312
:100580000A552C44A4F2F3340194A0FB0254C1F3A5
:10059000130141F48011C3F3130343F4801301FBEF
:1005A000024400FB034E840A970A44EA815447EA56
:1005B0008357A4FB076802958D0A05FB07854FEA60
:1005C000932C04FB0C542705029D4FEA065847EA7A
:1005D0001637B5EB08056EEB070C870E920E47EA4F
:1005E000811742EA8312A7FB0201B6EB0B0164EB11
:1005F00000042B0D43EA0C335E1844EB1C50DA4622
:100600005146E7FB0201C5F313044FEA0B3343EAFB
:1006100014534FEA0432019C43EA0603A4F10C048C
:100620000294009CCDE900B400F084FA03B0BDE868
:10063000F08F00200146F9E72DE9F04D81EA03042F
:1006400004F0004B21F0004514464FF0000A23F05F
:10065000004150EA050220D054EA01021DD0C5F342
:100660000A570246C5F31303C1F31300C1F30A5638
:1006700040F4801543F48013A7EB0608101BD64600
:1006800008F2FD3873EB050002D308F1010801E020
:1006900092185B41B8F1000F03DA00200146BDE873
:1006A000F08D00204FF48011064684460EE0171BA3
:1006B00073EB050705D3121B63EB050306434CEAF6
:1006C000010C49084FEA300092185B4150EA0107DB
:1006D000EDD152EA030012D082EA040083EA050158
:1006E000084305D0101BAB4106D20122002306E0CF
:1006F00000224FF0004302E06FF0010253101AEBAA
:1007000006004CEB085110EB0A0041EB0B01BDE871
:10071000F04D00F000BA70B521F0004303430CD057
:10072000C1F30A550024D5EB040564EB0403D61786
:10073000AD1AB34102DB0020014670BD201841EB29
:10074000025170BDC10F80EAE0700844CA079623C9
:10075000002100F0B2B90EB5C10F80EAE070084484
:10076000CA07002140F233438DE80E000A460B46CB
:1007700000F0E0F903B000BD0EB540F23341029144
:100780000021CDE900110A460B4600F0D3F903B071
:1007900000BD00F0004220F00040C10DC0F3160083
:1007A00040F400007F2901DA00207047962903DC1D
:1007B000C1F19601C84001E096398840002AF4D082
:1007C0004042704700F0004230F000400AD0C10DB6
:1007D00001F56071C0F3160042EA0151C2084007FA
:1007E00011437047002001467047000030B5041ED9
:1007F00071F1000404DB4FF00044404264EB01015E
:10080000141E73F1000405DB1C464FF000435242F6
:1008100063EB04038B4208BF824230BD30B5041E37
:1008200071F1000404DB4FF00044404264EB01012D
:10083000141E73F1000405DB1C464FF000435242C6
:1008400063EB0403994208BF904230BD01F00043BE
:1008500030B421F0004150EA010206D00A0DA2F5A1
:100860006072C1F31301002A02DC30BC0020704723
:10087000440F44EAC104C100E01830BC00EBC25090
:1008800000F012B9002801DBC0F10040002901DBB3
:10089000C1F1004181427047002801DBC0F10040F6
:1008A000002901DBC1F100418842704730B50B4699
:1008B000014600202022012409E021FA02F59D4290
:1008C00005D303FA02F5491B04FA02F52844151E64
:1008D000A2F10102F1DC30BD2DE9F05F05460020F8
:1008E00092469B4688460646814640241BE02846A1
:1008F00041464746224600F02FF853465A46C01A52
:10090000914110D311461846224600F016F82D1AD0
:1009100067EB01084F4622460120002100F00DF848
:1009200017EB00094E41201EA4F10104DFDC48460C
:1009300031462A464346BDE8F09F202A04DB203A90
:1009400000FA02F1002070479140C2F1200320FA22
:1009500003F3194390407047202A04DB203A21FA20
:1009600002F00021704721FA02F3D040C2F12002C8
:100970009140084319467047202A06DBCB17203ADE
:1009800041FA02F043EAE07306E041FA02F3D04094
:10099000C2F1200291400843194670470FB400236A
:1009A00000B589B00CA900910B996FF00042CB60A3
:1009B0001E4B06931E4B07930423CDE901321D4ABB
:1009C000089202466B46002000F0CEF909B05DF8AF
:1009D00014FB70B586B006464FF0FF300091CDE9AC
:1009E0000101002015460C4604903246694604A8D1
:1009F000FFF7D4FF02460498211825B108B1084634
:100A000000E020462860049800280DD0002A02DD6E
:100A10000098884208D0081B0094CDE901043246B2
:100A2000694604A8FFF7BAFF06B070BDA10F000821
:100A3000BF0F00082D0C00082DE9F04791460F4626
:100A400080460446002614F8015B2DB100F0EAF858
:100A50000068405DC007F6D12B2D02D02D2D18D097
:100A6000641E4A463946204600F0BAFA27B1396872
:100A7000A14201D1C7F8008071054FF002040BD5E7
:100A80004042002803DD03F067FB0460A007BDE8D7
:100A9000F08746F48066E4E70028F8DA03F05CFBB0
:100AA00004606FF00040F2E70029A8BF7047401CC7
:100AB000490008BF20F00100704710B4B0FA80FC74
:100AC00000FA0CF050EA010404BF10BC704749B1B1
:100AD000CCF1200421FA04F411FA0CF118BF012121
:100AE00021430843A3EB0C01CB1D4FEA00614FEA01
:100AF000102042BF002010BC704700EBC3501044D0
:100B00000029A4BF10BC7047401C490008BF20F05A
:100B1000010010BC704710B5141E73F1000408DA10
:100B2000401C41F1000192185B411A4301D120F0B1
:100B3000010010BD2DE9F04D92469B4611B1B1FA6E
:100B400081F202E0B0FA80F220329046FFF7F5FE23
:100B500004460F4640EA0A0041EA0B0153465A4652
:100B6000084313D0114653EA010019D0C8F14002DE
:100B70005046FFF7F1FE05460E465046594642469E
:100B8000FFF7DBFE084305D0012004E0204639468C
:100B9000BDE8F08D0020054346EAE0762C4337435C
:100BA0000A986305E40AA0EB08000022FD0A44EA63
:100BB00047540A3002D500200146E9E70105101923
:100BC0006941DDE9084500196941BDE8F04DA2E73A
:100BD000C1F30A52C1F3130140F2FF3341F4801113
:100BE0009A4202DA00200146704740F233439A42AB
:100BF000A2F2334202DC5242FFF7AEBEFFF79DBEC7
:100C0000064C074D06E0E06840F0010394E8070059
:100C100098471034AC42F6D3FFF78EFAB45E000862
:100C2000D45E000800487047B05E000810B5044666
:100C3000FFF7F8FF0068005D00F0010010BD000044
:100C40002DE9FF4F087883B09946FF2805D0491C4D
:100C50002D2804D00024002008E000200BE001240F
:100C6000F9E700EB800003EB4000491C0B78FF2BF9
:100C7000F7D104B1404200230293147819461D466F
:100C80002D2C01D02B2C04D1521C2D2C13D0002440
:100C90000294AA461478FF2C0FD00A25A3FB0578EE
:100CA00001FB05814FF0000C03FB0C11521CE319F2
:100CB0004AEB0101EEE70124EAE7814453EA01002F
:100CC00002D019F5C87F06DA03980021C0E90011A7
:100CD00007B0BDE8F08F0025AE4E2F46DFF8B88292
:100CE000184600F0DAF9CDE90001B9F1000002DAA6
:100CF000C9F1000400E004460023A74A1AEB030BE5
:100D000042EB045A12E0E00707D02A463346384641
:100D10004146FFF71FFC074688462A4633461046E1
:100D20001946FFF717FC05460E466410002CEAD161
:100D3000DDE90001B9F1000F5A46534606DAFFF724
:100D40007BFC3A464346FFF777FC05E0FFF702FCE1
:100D50003A464346FFF7FEFB029A0AB181F0004192
:100D6000039AC2E90001B3E72DE9FF4F1F468DB09A
:100D7000D7E901464FF0FF382E2045464FF00009D5
:100D80000B90B9696D1C0E988847396A824688476E
:100D90000028F6D1BAF1FF3F0AD024F4D064002E27
:100DA00011DDBAF12B0F08D0BAF12D0F0BD102E0F3
:100DB000404611B08DE744F48064B9696D1C0E980B
:100DC00088478246761E6946600501D52D2000E0E1
:100DD0002B208DF8000001F1010B0DF1200809E036
:100DE000B9696D1C0E98884782460F9844F40074C8
:100DF000761E0560002E02DDBAF1300FF0D00B999F
:100E00008A453ED144F0800406E00F99681CA9F1A0
:100E1000010944F400740860B9696D1C761E0E98CF
:100E2000884782463028F0D02BE00B998A4505D1BF
:100E3000200603D444F08004761E18E0504603F0E8
:100E40006DFA08B30DF11301761E44F400748B455E
:100E500008D2AAF130000BF8010B200607D5A9F142
:100E6000010003E0200602D409F101008146A0053B
:100E700002D50F99681C0860B9696D1C0E988847E7
:100E80008246002ED1DC53E0002E51DDBAF1650F11
:100E900002D0BAF1450F4BD1A00549D5B9696D1CF7
:100EA00024F44074761E0E9888478246002E0CDD8E
:100EB0002B2804D0BAF12D0F07D144F48074B969FE
:100EC0006D1C0E9888478246761EE00501D52D21BF
:100ED00000E02B2108F8011BCDF82C8021E00DF15A
:100EE0002901761E44F4007488450CD2AAF1300022
:100EF00010F0FF0088F8000002D10B99884509D94D
:100F000008F1010806E0E00501D5244801E042F2BD
:100F10000F708146B9696D1C0E98884782460F98FC
:100F20000560002E04DD504603F0F8F90028D6D104
:100F3000F9690E988847FF208BF8000088F80000B8
:100F40000020069007904B466A4608A906A8FFF7BE
:100F500077FEA00502D46FF001002AE714F0240FF9
:100F60000AD0E00714D1DDE906123868031D3B60A2
:100F70000068C0E900120BE0DDE90601FFF766FC3E
:100F80000146E00704D13868021D3A60006801603C
:100F900028460EE7000014400000F03FF1D8FFFFA4
:100FA000426842B1016811F8013B23B1521EC0E909
:100FB0000012184670470121C160881E70474268C0
:100FC0005AB1C368016843B983688B4205D0491E92
:100FD000521CC0E90012002070474FF0FF307047EC
:100FE0002DE9F05F82460078002715468B460AF10E
:100FF0000104B946302801D09DB113E014F8010B6B
:101000000127782803D0582801D045B10AE00DB156
:10101000102D07D10027102514F8010B02E0082538
:1010200000E00A250026B0460EE005FB080005FB9F
:1010300006F1012701EB10461FFA80F8B6F5803F54
:1010400000D3B94614F8010B294600F018F800281F
:10105000EBDABBF1000F05D00FB1641E00E054467F
:10106000CBF80040B9F1000F06D003F075F802216B
:101070000160C81EBDE8F09F48EA0640FAE73A283A
:1010800000D2303820F02002412A01D3A2F13700EB
:10109000884201D34FF0FF3070470EB540F2334223
:1010A00002920022CDE900221346FFF743FD03B070
:1010B00000BD00000221014800F086BB000C014089
:1010C0000221014800F082BB000C0140FEE7000055
:1010D000F0B5827A012191402E4A136843F0010352
:1010E00013602C4B1C331C688C431C60294D067B01
:1010F000294C0C35A6B92E688E432E604688C788C9
:1011000046EA0746877A04EBC707C7F840660688B1
:10111000878846EA0746877A04EBC707C7F844661C
:10112000067B012E12D12E680E432E60867A05684A
:1011300004EBC6064FEA3545C6F84056867A456840
:1011400004EBC6044FEA3545C4F84456114CC57A41
:10115000241D002D256806D00D4325600D4C058902
:10116000143415B104E08D43F7E725688D432560FD
:101170000589012D02D125680D432560407B01289A
:1011800002D1186808431860106820F00100106050
:10119000F0BD0000006600400060004010B503682C
:1011A000002223F002030360036843F0010303609D
:1011B0004FF6FF7300E0521C4468E40701D19A42E5
:1011C000F9D14268D2073ED08A79012A02683CD020
:1011D00022F080020260CA79012A026838D022F027
:1011E000400202600A7A012A026834D022F020020A
:1011F00002604A7A012A026830D022F010020260AE
:101200008A7A012A02682CD022F008020260CA7A87
:10121000012A026828D022F0040202608A78CC7881
:10122000920742EA04620C7942EA04424C79098846
:1012300042EA0452491E0A43C261016821F00101D9
:101240000160002114E0002010BD42F08002C1E7DF
:1012500042F04002C5E742F02002C9E742F0100226
:10126000CDE742F00802D1E742F00402D5E7491C7D
:101270004268D20701D09942F9D14068C007E2D153
:10128000012010BD0246002029B1012902D11069B8
:1012900000F003007047D068FAE700002DE9F04342
:1012A0000F46804689B0994616460121052001F077
:1012B000CDFA0121480601F0BDFA4FF48050ADF897
:1012C0001C0003208DF81E001820224C8DF81F00F2
:1012D00007A9204600F0ECF9E014ADF81C00482006
:1012E0008DF81F0007A9204600F0E2F9002401252F
:1012F0008DF806408DF808508DF807508DF809508C
:101300008DF802408DF80A508DF803808DF8046046
:101310008DF80B408DF80570ADF8009069460E48C9
:10132000FFF73CFF8DF816408DF817408DF81850E8
:10133000ADF80C40ADF81040ADF80E40ADF81240DD
:10134000ADF814408DF8195003A8FFF7C1FE09B09D
:10135000BDE8F083000801400064004010B500EBD8
:101360000113D3F8B04114F004041472D3F8B0415F
:1013700034D0E408C2F80440D3F8B04104F00204C9
:101380005472D3F8B44104F00F049472D3F8B4410A
:10139000240AD474D3F8B841D472D3F8B841240ADB
:1013A0001473D3F8B841240C5473D3F8B841240E05
:1013B0009473D3F8BC41D473D3F8BC41240A147499
:1013C000D3F8BC41240C5474D3F8BC311B0E937475
:1013D00039B1016941F02001016110BD640D146053
:1013E000CAE7C16841F02001C16010BD30B50246B6
:1013F000002093685B0108D49068000101D50120AA
:1014000003E09068C00037D5022002EB0012D2F84A
:10141000803103F00103C2F880310B7A73B3D2F844
:1014200080414D681C434B7A43EAC5031C43C2F814
:1014300080418B7A03F00F038B72D2F8843123F052
:101440000F03C2F88431D2F884318C7A2343C2F876
:101450008431CB7ACC6843EA0423C2F88831CB7B51
:10146000096943EA0121C2F88C11D2F8801141F0D8
:101470000101C2F8801130BD042030BDD2F88031A6
:101480004C7A23430C8843EA4453C2F88031D0E7B6
:10149000002221B1012905D0022906D112E082687B
:1014A000114801E08268114802401149501A8A42ED
:1014B00014D00ADCA2B16FF0806010180FD002289F
:1014C0000CD10FE082680B48EEE7B0F5007F09D041
:1014D0000949401803D0B0F5003F03D00020704701
:1014E0000220704701207047030000040003000839
:1014F00000010008000003100001FFF72DE9F04192
:101500000E46074615460421052000F085F8002107
:10151000012002F097FD80210A2001F089FC0024BF
:1015200005E0395D092002F08DFD641CE4B2B4428F
:10153000F7D30321012002F085FDFF24052001F0EF
:1015400041FA641E14F0FF0401D04007F6D52220B2
:1015500001F038FA2870212001F034FA6870BDE8F3
:10156000F081000070B5114E05460424002130467C
:10157000FFF788FE40B9012004F07AF8641EA4B297
:10158000012C10D0002CF1D1094A00213046FFF780
:10159000E5FE074800214218D27A6A54491C0829FE
:1015A000F9D3807A70BD002070BD00000064004057
:1015B0005C030020F0B585B00022132300931223B2
:1015C0008DF8082001938DF809208DF80A106B46DC
:1015D00004E0845C9D18521CEC7292B28A42F8D3EB
:1015E0000C4F19463846FFF701FF0646002440F627
:1015F000FF7501E0641CA4B231463846FFF748FF8E
:1016000008B9AC42F6D3AC4202D3012005B0F0BD1C
:101610000020FBE70064004070B50C46054601F071
:10162000D1F920EA04012846BDE8704002F00ABD65
:10163000704700001CB50A4619A3B2F5000FD3E9A4
:101640000013CDE900138DF8010004DB01208DF8B3
:101650000200154900E015491046FEF796FEFFF717
:1016600098F842F2107190FBF1F2642192FBF1F3D1
:1016700001FB13228DF8032090FBF1F292FBF1F3B2
:1016800001FB13228DF8042090FBF1F201FB120004
:101690008DF8050008216846FFF78CFF1CBD00008F
:1016A00005000000000000000000C8420000C8C2A1
:1016B000F0B5CA78002502F00F03D20601D58A786A
:1016C00013430A784FF00F0E12F0FF0F4FF0010294
:1016D0001CD004680F8802FA05F63740B74211D1D2
:1016E0004FEA850C0EFA0CF724EA070703FA0CF40C
:1016F0003C43CF78282F02D0482F02D002E0466129
:1017000000E006616D1C082DE4D304600C88FF2CFA
:101710001ED944685FF0000606F1080702FA07F5D3
:101720000F882F40AF420FD14FEA860C0EFA0CF70C
:10173000BC4303FA0CF73C43CF78282F00D1456116
:10174000CF78482F00D10561761C082EE4D3446081
:10175000F0BD0000F0B5144C002801DAE36900E0A8
:101760006368420D120185B2C0F301579540C0F382
:101770000346032F05D0C2020AD50322B240934389
:1017800007E023F07062636823F07063636002E037
:10179000AB4343F0706201B12A43002801DAE261F1
:1017A000F0BD6260F0BD0000000001400246002074
:1017B00092680A4200D00120704702460020D26899
:1017C0000A4200D0012070474161704701617047B3
:1017D000FEE7000038B50121102001F037F80121A3
:1017E000082001F033F810208DF803004402ADF812
:1017F000004001201A4D8DF8020069462846FFF787
:1018000057FF21462846FFF7E1FF0220ADF8000010
:1018100069461448FFF74CFF21462846FFF7D4FFDE
:10182000FFF74EFC052003F09BF9FFF743FC5F2018
:1018300003F096F9FFF744FC052003F091F9FFF758
:1018400039FC5F2003F08CF9FFF73AFC052003F028
:1018500087F9FFF72FFC5F2003F082F938BD000005
:1018600000100140000C014070B5094D4FF40054C8
:1018700021462846FFF7A1FF00282146284603D02D
:10188000BDE87040FFF7A0BFBDE87040FFF79EBF06
:10189000001001401648FA230146B0F90620B1F9BC
:1018A0000810C82A05DBC82901DB838204E0818295
:1018B00002E0C8290BDB82820D49B0F90220B1F9A0
:1018C0000410C82A0ADBC82906DB4382704711448A
:1018D00001EBD1714910EAE741827047C82901DB69
:1018E00042827047114401EBD1714910F4E70000C6
:1018F000140100202B4CFA25012001F0F9FAE189AE
:10190000084400B2A0F11401A12901D3E58003E04D
:1019100080B203F051F9E080052003F0A9FEFFF743
:10192000B9FF022001F0E4FA218A084400B2A0F1D4
:101930001401A12901D3258103E080B203F056F9F7
:101940002081052003F094FEFFF7A4FF032001F09F
:10195000CFFA6189084400B2A0F11401A12901D392
:10196000658003E080B203F05BF96080052003F03E
:101970007FFEFFF78FFF042001F0BAFAA189084427
:1019800000B2A0F11401A12901D3A58003E080B227
:1019900003F060F9A080052003F06AFEFFF77AFFEC
:1019A000AAE7000014010020DFF8D0A0344D0AF1AE
:1019B000100B00BF9AF8000000285AD12F4C143C9D
:1019C000E0886188401A2189401AA081E189401A83
:1019D00000B22082296B08442863FEF7B3FE294A2F
:1019E000294903F0A3FDFEF7D4FE28632749DBF85D
:1019F0002800884207DA2649884204D8DFF8949004
:101A0000254F264E03E0264F264E4FF00009B4F92D
:101A1000108040F2572108F22B10884201D200209A
:101A20002863686BA8EB0000FEF78CFE3146FEF7DA
:101A3000ACFC0446286BFEF785FE3946FEF7A5FC94
:101A400006464046FEF77EFE4946FEF79EFC3146BE
:101A5000FEF743FC2146FEF740FC4FF07E52124950
:101A600003F064FD05491439B1F910106963CBF82E
:101A700038000A2003F0FCFD9CE700004001002034
:101A80001400002000409C4500409CC5CDCC4C3E3D
:101A9000CDCC4CBE17B7D139ACC527376F1283BA3E
:101AA00082A8FB3752499DB9000080BF364F4FF0E6
:101AB000010907F11008002607F1D40494F8390051
:101AC00000285AD0304831A1D430FEF7D7FB6063EC
:101AD0002EA10020FEF7D2FB6063FEF7F1FB85B27A
:101AE000422D1ED03E7029A10020FEF7C7FB606387
:101AF000FEF7E6FBFEF726FE834624A10020FEF754
:101B0000BDFB6063FEF7DCFB1FFA80FA1FA100201B
:101B1000FEF7B4FB6063FEF7D3FB83B2062D23D040
:101B200026E087F8009019A10020FEF7A7FB60636C
:101B300002F098FFFEF78AFEC8F83000454613A170
:101B40000020FEF79BFB606302F08CFFFEF77EFE39
:101B500068630EA10020FEF791FB606302F082FF34
:101B6000FEF774FEA86308E088F84490C8F848605F
:101B700052465946284600F083FB84F8396001201C
:101B800003F076FD9AE70000400100207C00000091
:101B9000FEE700001CB5DFF80C844FF47A7A08F1F8
:101BA0001804002504F5E47BFE4E2C36B07801289D
:101BB00009D0022875D0032874D03146052872D088
:101BC000062871D0E6E2B8F90010B6F90C00081A40
:101BD000FEF7B8FDF4490746884270DBB6F90E10EF
:101BE000B8F9122001EBD173B2EB630F2FDAEFA03B
:101BF00002F08EFAEB4FFA203C373D6303F038FDDC
:101C00004FF4FA60E081C82003F032FD564602E04E
:101C1000642003F02DFDB4F9100000F5FA70B04215
:101C2000F6D8E5483863304603F022FDFA203D63DC
:101C300003F01EFDE581C82000E0642003F018FDDC
:101C4000B4F9100000F5FA70B042F6D8A2E2B8F983
:101C50001400B0EB630F33DAD8A002F059FAD14F79
:101C6000FA203C373D6303F003FDD748E081C820EC
:101C700003F0FEFC564602E0642003F0F9FCB4F9E0
:101C8000100000F5FA70B042F6D8CB483863304601
:101C900003F0EEFCFA203D6303F0EAFCE581C82086
:101CA00004E077E0B3E044E14FE1642003F0E0FCBE
:101CB000B4F9100000F5FA70B042F6D86AE213E009
:101CC0008A4206DAA4F80EA0C82003F0D1FCBFA017
:101CD00007E0884208DAC048E081C82003F0C8FC69
:101CE000BEA002F015FA00E0E581B7F5000F01DAB9
:101CF000BD484BE0BD48874207DCAA483C3005633D
:101D00007570B57080F8445037E2B6F90C00FEF7F4
:101D100022FD4FF03332B64BFEF71CFC81463846AD
:101D20000191FEF74FFD07464A460091019BFEF7E1
:101D30005DFD05D8B068FEF745FDAE4AAE4B21E02B
:101D4000B6F90C00FEF707FDAC4AAD4BFEF702FCFE
:101D500002460B4638460099FEF748FD01D8B068A8
:101D600037E2B6F90C00FEF7F6FC0022A54BFEF7B1
:101D7000F1FB02460B4638460099FEF737FDB06886
:101D80007ED83CE2FEF7E6FBFEF760FD85493C317C
:101D90000863FFE1B06810F0FF4F03D0B0F17E5F41
:101DA00005D016E0B089B6214843208111E0B18901
:101DB00020895B22514300EB410000B210F5004F37
:101DC00002DBB0F5004F00DD00B220814FF0804013
:101DD000B060C82003F04CFCB4F90C0040F2E731CD
:101DE00000F2F3108842D4D24FF4167003F040FC96
:101DF00085A10BF1040002F09BF9854800231A46E7
:101E00008249406E03F042FD7570B570C2E14FF239
:101E10006000E0814FF00009C82003F029FC4FF476
:101E2000C87602E0642003F023FCB4F91000C83047
:101E3000B042F7D877A002F06BF9C82003F018FC85
:101E400040F6C410E081C82017E000BFB8F80200D7
:101E5000B8F80410401A00B2401D0A280CD8B9F195
:101E6000000F09D1618820894FF00109081A60F339
:101E70000F0769A002F04CF9642003F0F9FB00E0C1
:101E8000D7E1B4F91000C830B042DFD8C82003F061
:101E9000EFFB4FF23C60E081C82003F0E9FB4FF01C
:101EA000000918E0B8F80210B8F80400081A00B2E7
:101EB000401D0A280CD8B9F1000F09D1618820898A
:101EC0004FF00109081A60F31F4754A002F020F9EF
:101ED000642003F0CDFBB4F91000C830B042E1D863
:101EE000C82003F0C5FB38B200EB274000EBD070F0
:101EF0004010E080E58102E0642003F0B9FBB4F912
:101F00001000C830B042F7D84FF4167003F0B0FBA1
:101F10003DA10BF1040002F00BF93D4800231A46E5
:101F20003A49406E03F0B2FC1E482C304570857073
:101F300030E11C483C3080F844500563E5814D7029
:101F40008D7037A002F0E4F824E1DFF8589009F131
:101F50002C09B9F90C00FEF7F5FB09F110018F6CA3
:101F60003946FEF70CFAFEF714FC06B23846FEF7C7
:101F700029FC02460B462CA10BF1040002F0D8F814
:101F8000234800231A462149406E03F07FFCB9F92B
:101F90000C00FEF7E0FB264A264BFEF7DBFA07466D
:101FA000894649E0140100200000C842544F4F20E8
:101FB0004C4546540A000000CDCC4C3D544F4F20B8
:101FC00052494748540A000030F8FFFF746F6F20F1
:101FD0006C6566740A00000018FCFFFF746F6F20C8
:101FE00072696768740A00008FC2F5BC0000204166
:101FF0003333F33FFCA9F1D24D62503FCDCCCCCC72
:10200000CCCCFC3F00000440400A0000F402002059
:10201000140000202D310A002D320A002D330A0051
:10202000444F4E45350A0000247C25667C0A00009A
:102030009A9999999999B93F3046FEF78CFBCDE969
:1020400000013A464B46FEF7E9FB6FD87B48B8F9EA
:102050001210B0F90E0000EBD073B1EB630F30DA61
:10206000AFF2B80002F054F8744FFA2010373D6315
:1020700003F0FEFA4FF4FA60E081C82003F0F8FAAA
:10208000564602E0642003F0F3FAB4F9100000F5BC
:10209000FA70B042F6D86A483863304603F0E8FA7E
:1020A000FA203D6303F0E4FAE581C82000E06420F3
:1020B00003F0DEFAB4F9100000F5FA70B042F6D879
:1020C00068E0B8F91420B2EB630F30DAAFF2141005
:1020D00002F01EF8594FFA2010373D6303F0C8FA9A
:1020E0005848E081C82003F0C3FA564602E0642055
:1020F00003F0BEFAB4F9100000F5FA70B042F6D859
:102100004F483863304603F0B3FAFA203D6303F0DA
:10211000AFFAE581C82000E0642003F0A9FAB4F921
:10212000100000F5FA70B042F6D833E015E08142B5
:1021300007DAA4F80EA0C82003F09AFAAFF27410E0
:1021400008E0824209DA4048E081C82003F090FAB2
:10215000AFF2781001F0DCFF00E0E581002E04DC36
:1021600036483A491030016314E0012E16DC33483A
:1021700010300563103845708570AFF274110BF1A3
:10218000040001F0D5FF334800231A463049406E61
:1021900003F07CFB0A2003F06BFA05E5274FB7F943
:1021A0000C00FEF7D8FA2C4A2C4BFEF7D3F9024666
:1021B0000B46DDE90001FEF719FB01D8012000E024
:1021C0000020142E01DC012100E00021084305D08D
:1021D000B868FEF7F7FA224A224BD3E5B7F90C00AC
:1021E000FEF7B9FA4FF033321F4BFEF7B3F9024650
:1021F0000B46DDE90001FEF7F9FA05D8B868FEF7ED
:10220000E1FA1A4A1A4BBDE5B7F90C00FEF7A3FA3A
:102210004FF0FF32FEF77FFA02460B46DDE9000180
:10222000FEF7E4FAB86804D8FEF7CCFA114A124B6C
:10223000A8E5FEF7C7FA0D4A104BA3E540010020C0
:10224000CDCC4C3D30F8FFFF18FCFFFF0AD723BD73
:10225000F4020020140000209A9999999999B93FA5
:10226000FA7E6ABC7493683F3333D33F7B14AE4726
:10227000E17A743FFCA9F1D24D62803FE17A843F5C
:10228000F0B4094C12B21BB2667801252EB10528B4
:1022900003D006A0F0BC01F03BBFA070A160A281FA
:1022A000E381657003A0F5E740010020554E474FDC
:1022B000540A0000474F540A000000007047000015
:1022C00070B50F23C47801780122F4B1144C24684E
:1022D000457804F4E064C4F5E064240AC4F104061B
:1022E000E3408478B5401C402C4301F1E0212301F8
:1022F00081F80034007800F01F018A404009800016
:1023000000F1E020C0F8002170BD01F01F00824004
:102310004809800000F1E020C0F8802170BD000075
:102320000CED00E0024908430249086070470000D4
:102330000000FA050CED00E02DE9F047304C314F7C
:1023400005464FF0333601282ED0022D2AD1606A7F
:10235000FEF738FAB1463246B8463B46FEF76CF90E
:1023600007460E466069FEF72DFA3A463346FEF7F9
:102370004AF8FEF76BFA01462846FFF75BF9606AF8
:10238000FEF720FA4A464346FEF756F906460D4642
:102390006069FEF717FA32462B46FEF734F8FEF76F
:1023A00055FA6061BDE8F087206AFEF70BFAB14686
:1023B0003246B8463B46FEF73FF907460E462069CF
:1023C000FEF700FA3A463346FEF71DF8FEF73EFAEE
:1023D00001462846FFF72EF9206AFEF7F3F94A4630
:1023E0004346FEF729F906460D462069FEF7EAF94D
:1023F00032462B46FEF707F8FEF728FA2061D1E7B0
:10240000500100203333054003211420FFF704B9A5
:1024100010B5142000F0D6FA800705D10321BDE8DD
:102420001040142000F004BD10BD70B50646082110
:1024300088B000240846FFF7EFF800210D2001F0D6
:1024400001FE80210E20FFF7E7F893208DF80400AD
:1024500020208DF8050006A801AB00900222194645
:102460000C2000F018F8054626280DD1002101A8FF
:10247000425C7254425C491C5440C9B20429F7D3EF
:10248000405CA04200D0BB2580210E2000F0D0FC93
:1024900008B0284670BD2DE9FF5F0027BB25DDF899
:1024A00038A016468B468146B8460C2805D0B9F1AF
:1024B0000E0F05D11227102001E07727302080462B
:1024C00047F08001022001F0BDFD80210420FFF7CC
:1024D000A3F80021012001F0B5FD80210A2000F0C1
:1024E000A7FC002405E01BF80410092001F0AAFD58
:1024F000641CB442F7D34946012001F0A3FDB9F1B1
:102500000C0F03D180210D2000F092FC042000F07C
:1025100059FA40F2DC56042000F054FA0446761EC4
:1025200004D0E00702D114EA080FF4D080210D2076
:10253000FFF772F836B1062000F044FA10F01B0FD6
:102540000CD0BB2580210C2000F072FC0021012062
:1025500001F078FD04B02846BDE8F09F26253C40F8
:10256000E00700D0CC25B9F10C0FEBD10A2000F028
:1025700029FA04460C2000F025FA10F007004FEA73
:10258000C40101D008390144CAF8001024B1122C4A
:1025900004D91224002603E00124FBE7002605E00D
:1025A000092000F00FFA03998855761CA642F7D34C
:1025B000C8E700B587B050208DF8040000208DF8E2
:1025C00005000DF10602022101A8FEF797FF06A8FB
:1025D00001AB0090042219460C20FFF75CFF07B006
:1025E000262000BD30B587B00D4630218DF804108F
:1025F00001AC8DF8050002212046A21CFEF77EFFEB
:1026000006A801AB0090042219460C20FFF743FFF7
:10261000262802D10699902902D0BB2007B030BDF0
:102620000023E15CE9545B1CDBB2102BF9D3F5E726
:1026300030B50C460546082187B00846FEF7ECFF8A
:1026400007210D2001F0FEFC0321142000F0F0FB17
:1026500006A801AB00908DF80450012219460C2009
:10266000FFF719FF262802D10699102902D0BB20B6
:1026700007B030BD9DF8041021709DF80510617001
:10268000F6E7000010B51E4C10212046FFF79EF81B
:10269000022002F080FA10212046FFF795F8022070
:1026A00002F079FA10212046FFF790F8022002F09C
:1026B00072FA0F21012001F0C5FC012000F082F91F
:1026C000C006FAD4022002F066FA3D21112001F082
:1026D000B9FC1E212D2001F0B5FC00212C2001F0B9
:1026E000B1FC8D212A2001F0ADFC3E212B2001F010
:1026F000A9FC4021152001F0A5FC262010BD0000FA
:102700000010014010B588B093218DF8041070219D
:102710008DF8051000218DF80A1001AA5418435CA9
:10272000A370445C9DF80A30491C6340C9B28DF81F
:102730000A300429F2D3072101A8D21DFEF7DEFEDC
:1027400008210846FEF768FF06A801AB00900922A1
:1027500019460C20FFF79FFE262802D1069918295A
:1027600000D0BB2008B010BD10B500F0B5F91021A5
:102770000548FFF72BF820210448FFF727F8BDE8AC
:102780001040FFF77FBF000000100140000801402B
:10279000F8B50121042000F059F81024ADF80040EC
:1027A0000325224E8DF802508DF8034069463046CD
:1027B000FEF77EFF0121042000F048F82020ADF84C
:1027C00000008DF802508DF8034069463046FEF750
:1027D0006FFF0121042000F039F84020ADF800001F
:1027E0008DF802508DF8034069463046FEF760FFD1
:1027F0000121042000F02AF88020ADF80000042018
:102800008DF8030069463046FEF752FF0121102083
:1028100000F01CF8ADF800408DF802508DF8034030
:1028200069460348FEF744FFF8BD00000008014078
:1028300000100140044A0029D16901D0014300E0A1
:102840008143D1617047000000100240044A002912
:10285000916901D0014300E081439161704700001C
:102860000010024030B51F494A6812F00C031E4A9E
:1028700003D0042B01D0082B21D002604A680F231B
:102880001A4C03EA1212A35C0268DA4042604B68F9
:10289000072505EA1323E35C22FA03F383604B6800
:1028A00005EAD323E35CDA40C2604968032303EA04
:1028B0009131231F595CB2FBF1F1016130BD4A68CF
:1028C0004B6802F470124FF0020413F4803F04EBE3
:1028D000924202D04B689B0301D5054B00E0024BAE
:1028E0005A43CAE70010024000127A000400002098
:1028F00000093D00F0B54288642304885A43B2FBC6
:10290000F4F2D3B282886425C0886A436843B2FB7C
:10291000F4F2B0FBF4F0D2B2C0B2934203D28242DE
:1029200003D3154604E0834201D2054600E01D466C
:10293000934203D9824203D8164604E0834201D968
:10294000064600E01E46AF19AC1B4FEA570CE4B236
:1029500081F803C0B54202D10020088030E09D42DA
:102960000CD18242A2EB0000C0EB00104FEA8000C5
:1029700090FBF4F015D200F5B47012E0954207D147
:10298000C01AC0EB0010800090FBF4F0783008E033
:10299000854207D1981AC0EB0010800090FBF4F03C
:1029A000F0300880BCF1320F04D8C4EB0420B0FB37
:1029B000F7F005E064204443C7F1C80094FBF0F051
:1029C0008870F0BD2DE9F041314C064600252021EC
:1029D0002046FEF7F9FE022002F0DDF81021204625
:1029E000FEF7F2FE022002F0D6F87E2000EA460052
:1029F00040F08007082638064FF04001204602D5F7
:102A0000FEF7E4FE01E0FEF7DFFE022002F0C3F86D
:102A100020212046FEF7DAFE022002F0BCF87806FC
:102A2000070E20212046FEF7CFFE022002F0B3F869
:102A3000761E16F0FF06DED1082620212046FEF77E
:102A4000C5FE022002F0A7F86806070E8021204686
:102A5000FEF7ACFE40EA070520212046FEF7B4FE53
:102A6000022002F098F8761E16F0FF06E5D120212C
:102A70002046FEF7ABFE022002F08DF81021204622
:102A8000FEF7A4FE022002F086F82846BDE8F08199
:102A90000008014070B50D4CD4E906563146284671
:102AA000FDF71BFC4FF0FF31FDF7A1FCA0623146A2
:102AB0002846FDF764FCFDF785FE054A054BFDF74A
:102AC000BBFDFDF7C3FEE06270BD000050010020B9
:102AD0000AD7A3703D0AB73FF8B501211420FFF7CC
:102AE000B5FE1024ADF800401B4E8DF803400325C1
:102AF0008DF8025069463046FEF7DAFD2020ADF829
:102B000000008DF803408DF8025069463046FEF70C
:102B1000CFFD8020ADF8000004208DF803008DF873
:102B2000025069463046FEF7C3FD4020ADF8000074
:102B30008DF803408DF8025069463046FEF7B8FD27
:102B4000ADF800408DF803408DF802506946034807
:102B5000FEF7AEFDF8BD0000000801400010014086
:102B60009AB00B4C4FF0FF356E462A466946606EB0
:102B700002F008FF012806D1311D06A001F0C8FAB5
:102B800005A001F0C5FA012002F072FDEDE700009A
:102B900014000020257300000A0000002DE9F04F0A
:102BA000012187B08803FFF751FE01210420FFF7C0
:102BB0004DFE48268DF813604FF4806AADF810A0E2
:102BC00003208DF8120004A99248FEF771FD182722
:102BD0008DF813704FF40070ADF8100003208DF8DD
:102BE000120004A98B48FEF763FD00244FF00C0986
:102BF000DFF824B24FF4E138ADF80A90ADF80640A2
:102C0000CDF80080ADF80C40ADF80840ADF80440B8
:102C10006946584600F0C8FE012240F22551584648
:102C200000F0A9FE4FF4A060FFF77CFB25208DF893
:102C3000140001258DF817508DF815508DF8165099
:102C400005A8FFF73DFB0121584600F06BFE01216E
:102C50004804FFF7EFFD01210420FFF7F7FD8DF891
:102C600013600820ADF8100003208DF8120004A9AD
:102C70006848FEF71DFD8DF813700420ADF81000B4
:102C800003208DF8120004A96248FEF711FDDFF859
:102C90008CB1ADF80A90ADF80640CDF80080ADF8E3
:102CA0000C40ADF80840ADF804406946584600F0C5
:102CB0007BFE012240F22551584600F05CFE4FF4A5
:102CC000A060FFF72FFB26208DF814008DF8175019
:102CD0008DF815508DF8165005A8FFF7F1FA01216F
:102CE000584600F01FFE01218804FFF7A3FD0121D3
:102CF0000820FFF7ABFD8DF813604FF4006BADF8C3
:102D000010B003208DF8120004A94548FEF7D0FC4E
:102D10008DF81370ADF810A003208DF8120004A9EF
:102D20003F48FEF7C5FCADF80A90ADF80640CDF877
:102D30000080ADF80C40ADF80840ADF8044069469D
:102D4000384800F031FE012240F22551354800F0AC
:102D500012FE4FF4A060FFF7E5FA27208DF814006B
:102D60008DF817508DF815508DF8165005A8FFF7FF
:102D7000A7FA01212B4800F0D5FD0121C804FFF777
:102D800059FD01211020FFF761FD8DF81360ADF8AA
:102D900010B00320244E8DF8120004A93046FEF72F
:102DA00087FC8DF81370ADF810A003208DF8120089
:102DB00004A93046FEF77CFCADF80A90ADF8064059
:102DC000ADF80C40ADF80840ADF80440174CCDF814
:102DD00000806946204600F0E7FD012240F22551BF
:102DE000204600F0C8FD4FF4A060FFF79BFA3420A6
:102DF0008DF814008DF817508DF815508DF8165079
:102E000005A8FFF75DFA0121204600F08BFD07B011
:102E1000BDE8F08F00080140003801400044004048
:102E2000000C01400048004000100140004C0040F0
:102E300070B50C460546FFF7C5FD40EA040128467B
:102E4000BDE8704001F0FEB80CB5002126480191A4
:102E50000091026842F4803202604FF4A06302687D
:102E600002F400320092019A521C0192009A12B9A7
:102E7000019A9A42F3D10268920333D5012100915D
:102E80001A490A6842F010020A600A6822F0070232
:102E90000A600A6842F002020A60416841604168C3
:102EA0004160416841F480614160416821F47C11D6
:102EB0004160416841F4E8114160016841F080716E
:102EC000016001688901FCD5416821F0030141607E
:102ED000416841F0020141604168C1F3810102296A
:102EE000FAD10CBD00910CBD001002400020024040
:102EF0000149087000F0DBBEF40000202DE9F05F0E
:102F00002A4C256BA06BE563FDF75CFCDFF8A09015
:102F10008B4606464A46274BFDF71CFB074688466C
:102F20002846FDF74FFC8A4605463A464346FDF7DC
:102F30000BFBFDF78BFC2F46206255463046594669
:102F40004A461D4BFDF706FB3A462B46FDF7FCFAB9
:102F5000FDF77CFC6062A1682068FDF710FA174D50
:102F60002946FDF712FAFDF72DFC154E154F324696
:102F70003B46FDF7EFFAFDF769FCA061E168606888
:102F8000FDF7FDF92946FDF700FAFDF71BFC324677
:102F90003B46FDF7DFFAFDF759FCE061FFF77AFDEC
:102FA0002068A0606068E060BDE8F09F50010020EC
:102FB0000AD7A3703D0AA73F3D0AA7BF0000C84239
:102FC000D9CEF753E3A59B3F7CB50020009001903C
:102FD0006846FEF7C7FA9DF80100214D214E224CAC
:102FE00001281FD002281CD19DF80500FDF7C4FB65
:102FF0002A463346FDF7AEFA0D469DF80310064605
:103000009DF8040001EBC10202EB011100EB81000D
:10301000FDF7B2FB32462B46FDF7F5F9FDF716FC3E
:1030200060607CBD9DF80500FDF7A6FB2A4633468F
:10303000FDF790FA06469DF803000D469DF8041032
:1030400000EBC00202EB001001EB8000FDF794FBE7
:1030500032462B46FDF7D7F9FDF7F8FB20607CBD23
:103060007B14AE47E17A843F5001002010B5BF20A9
:1030700080F31188BFF34F8FBFF36F8F02F054FDC1
:1030800018B104494FF080500860002080F3118887
:1030900010BD000004ED00E00F4810B5016841F0DC
:1030A0000101016041680D4A1140416001680C4A0C
:1030B00011400160016821F480210160416821F420
:1030C000FE0141604FF41F018160FFF7BDFE05491D
:1030D0004FF00060086010BD001002400000FFF8D3
:1030E000FFFFF6FE08ED00E008B501208DF80000B6
:1030F00002466946002000F0FAF903208DF800002E
:1031000001226946002000F0F2F908BD08B500214F
:1031100000910222694600F0C6F9BDF8000008BD22
:1031200038B5044601208DF8000002466946132098
:1031300000F0B9F99DF80000C00710D01420FFF787
:10314000E5FF20801620FFF7E1FF60801820FFF7E1
:10315000DDFFA0801A20FFF7D9FFE080012038BDF5
:1031600070B50E4D4FF4805421462846FEF72CFBD7
:1031700000F0F0F961002846FEF726FB022001F07E
:103180000AFD21462846FEF721FB022001F003FD3F
:1031900021462846BDE87040FEF716BB000C0140F2
:1031A00038B501210820FFF751FB4FF44054ADF82A
:1031B000004010208DF803000320064D8DF802001A
:1031C00069462846FEF774FA21462846FEF7FEFABD
:1031D00038BD0000000C014070B50E4D4FF4805416
:1031E00021462846FEF7F0FA00F0B4F961002846BF
:1031F000FEF7ECFA022001F0CEFC21462846FEF74D
:10320000E5FA022001F0C7FC21462846BDE87040DF
:10321000FEF7DABA000C01402DE9F0419846154658
:103220000E460746002400F089F8012000EB470015
:10323000C0B200F04FF800F0C5F86F1E09E0BC42C4
:1032400001D1002000E0012000F00EF83055641C90
:10325000E4B2AC42F3D3B8F1010F03D1BDE8F041C1
:1032600000F08EB8BDE8F0812DE9F04781460024DA
:1032700000F05AF9DFF85880154F00254FF48056BA
:1032800008F1080831463846FEF79EFA022001F0A0
:1032900082FC31463846FEF799FA6006040ED8F8EB
:1032A0000000800401D5641CE4B2012001F073FC2D
:1032B0006D1CEDB2082DE5D3B9F1000F04D0FFF776
:1032C0004FFF2046BDE8F087FFF786FFF9E70000D3
:1032D000000C01402DE9F041054600F03BF9164F86
:1032E0004FF4805631463846FEF76EFA00244FF40C
:1032F000005828064146384602D5FEF767FA01E035
:10330000FEF762FA6806050E022001F044FC314621
:103310003846FEF75BFA022001F03DFC31463846A4
:10332000FEF752FA022001F036FC641CE4B2082CCD
:10333000DFD3BDE8F0810000000C014070B500F063
:1033400009F90E4D4FF4005421462846FEF73EFA87
:10335000661031462846FEF739FA042001F01BFCBE
:1033600021462846FEF730FA042001F014FC3146CD
:103370002846BDE87040FEF727BA0000000C014067
:1033800070B500F0E7F80E4D4FF480542146284602
:10339000FEF71AFA660031462846FEF715FA0420B1
:1033A00001F0F9FB21462846FEF710FA314628467F
:1033B000FEF70CFABDE87040042001F0ECBB000001
:1033C000000C014070B5002400F0AEF8114D4FF430
:1033D00000512846FEF7FAF9012001F0DCFBAE149B
:1033E00031462846FEF7F2F9012001F0D4FB0948E6
:1033F000083006E0641C052C03D9FFF7C1FF01204B
:1034000070BD01688904F5D431462846FEF7DCF921
:10341000002070BD000C01402DE9F0419846154692
:103420000E4607460024FFF789FF7806000EFFF7D7
:1034300051FFFFF7C7FF06E0305DFFF74BFFFFF7D7
:10344000C1FF641CE4B2AC42F6D3B8F1010F03D162
:10345000BDE8F041FFF794BFBDE8F08108B500205A
:103460008DF80000FFF79CFE01226946122000F053
:103470001AF89DF800004D2803D0002144280ED0F2
:1034800000E00121002001430BD0F62000F028F8D5
:10349000002000F01EF8FFF727FE012008BD0120E4
:1034A000F1E7002008BD37B514469DF800000D4631
:1034B00040F080008DF80000002301226946292099
:1034C000FFF7AAFF0123224629462920FFF7A4FE81
:1034D0003EBD01B5012269460F2000F008F808BD85
:1034E00001B501226946104600F001F808BD3EB55D
:1034F0000023009340F08000019302938DF80000B8
:1035000001206B4605E00C1814F8014C1C54401CBB
:10351000C0B29042F7D9521CD2B201236946292089
:10352000FFF77AFF3EBD000008B501210820FFF734
:103530008DF94FF40050ADF8000028208DF80300FD
:1035400003208DF8020069460148FEF7B1F808BD76
:10355000000C014008B501210820FFF777F94FF46E
:103560000050ADF8000010208DF8030003208DF806
:10357000020069460148FEF79BF808BD000C0140B7
:1035800010B5094C0121204600F015F830B107496B
:103590000868401C08604868401C48602046BDE838
:1035A0001040012100F004B800040040EC000020AD
:1035B000C9430182704702460020138A92890B4258
:1035C00002EA010202D0002A00D001207047000068
:1035D0002DE9F0412A4C40F225552946204600F0BD
:1035E000ABF901284AD1204600F034FA254BC1B28C
:1035F000012683F86D1093F83870002003F13A0229
:10360000012F09D0402930D083F86C00294620468C
:10361000BDE8F04100F080B993F86C70B95493F8AC
:103620006C10184F491CC9B2143F83F86C101E2946
:1036300007D300BF87F84E0083F86C0083F838008A
:10364000E4E7104A3932895C2329DFD10022991836
:1036500091F83AC003F802C0521CD2B281F83A0085
:10366000282AF4D983F83960E4E713F86C0F815401
:103670001878401C187003F8346CC7E7BDE8F08177
:10368000004C0040140200202DE9F0412A4C40F289
:1036900025552946204600F04FF901284AD12046F9
:1036A00000F0D8F9254BC1B2012683F86D1093F8CC
:1036B0003870002003F13A02012F09D0402930D0A0
:1036C00083F86C0029462046BDE8F04100F024B99B
:1036D00093F86C70B95493F86C10184F491CC9B228
:1036E000143F83F86C101E2907D300BF87F84E00E3
:1036F00083F86C0083F83800E4E7104A3932895CBB
:103700002329DFD10022991891F83AC003F802C0AA
:10371000521CD2B281F83A00282AF4D983F83960D1
:10372000E4E713F86C0F81541878401C187003F804
:10373000346CC7E7BDE8F081003801401402002076
:103740002DE9F04F40F2255585B029463A4800F062
:10375000F3F801281BD1384800F07CF9374CAB4610
:10376000294684F86D00364800F0D6F894F8380001
:103770000026012894F86D0004F13A050AD0442887
:103780004FD084F86C6059462B4800F0C5F805B05E
:10379000BDE8F08F94F86C10DFF8A090485594F8CD
:1037A0006C00A9F10409401CC0B284F86C002D28FB
:1037B00006D389F83E6084F86C6084F83860E2E7EC
:1037C0001E49A2463931405C0A28DCD11DA1284699
:1037D000FCF73AFD80461CA12846FCF735FD014662
:1037E00008F10100A1EB08046F460546641EFCF7D2
:1037F0003DFD844206DD044604E000BF15F8010BE0
:1038000007F8010B641EF9D23E706846FCF758FDBC
:103810000E49088089F83E608AF86C608AF8386042
:10382000B1E714F86C1F48552078401C2070012027
:1038300004F8340CA7E70000004400408402002094
:10384000004C00403A0000006D6D2C001401002077
:103850002DE9F0412E4C40F225552946204600F036
:103860006BF8012852D1204600F0F4F8294AC0B282
:10387000002182F86D0092F83870012302F13A06B7
:10388000012F09D0552838D082F86C1029462046DF
:10389000BDE8F04100F040B892F86C70B85592F86D
:1038A0006C00401CC0B282F86C000A28EED919489E
:1038B00092F83B607838532E02D0522E0DD013E090
:1038C00092F8406092F8417006EB072636B24680C7
:1038D000877A4FB9C680837206E092F8403092F83A
:1038E000416003EB062383800A48243880F85E1089
:1038F00082F86C1082F83810C8E712F86C1F8855EF
:103900001078401C107002F8343CBFE7BDE8F0812D
:1039100000480040A40100200A0A01219140C94347
:10392000018070470029818902D041F4005101E0F3
:1039300021F400518181704730B501F01F0201244C
:103940000025C1F3421304FA02F2012B0FD0022B1F
:103950000FD0838A4FEA11210088134204FA01F440
:1039600000EA040001D000B10125284630BD83895A
:10397000F0E7038AEEE710B5C1F3421301F01F042C
:103980000121A140012B07D0022B07D01430002ABF
:10399000026805D00A4304E00C30F8E71030F6E77F
:1039A0008A43026010BD000030B50446008A85B02D
:1039B0000D464CF6FF710840E98801432182A18938
:1039C0004EF6F3100140A8882A8910436A890A43F9
:1039D0001043A081A08A4FF6FF410840A989014306
:1039E000A1826846FEF73EFF1948844201D1039840
:1039F00000E00298A189090400EBC00101EB00106E
:103A0000296801D5490000E08900B0FBF1F064228B
:103A1000B0FBF2F109010B096FF018056B4300EBE5
:103A20008300A3891D044FF0320306D503EBC000C9
:103A3000B0FBF2F000F0070005E003EB0010B0FB74
:103A4000F2F000F00F000843208105B030BD000007
:103A5000003801408088C0F308007047FEE700008E
:103A600008B5642001F07CF8FDF7B4FEFFF796F886
:103A700011A000F04DFBFFF7F1FCFEF775FEFEF71D
:103A800087FE00F051F9012000F01CF8022000F040
:103A900019F8032000F016F8042000F013F80120B4
:103AA00003220090042311460020FDF7F7FBBDE838
:103AB0000840642001F054B8726573746172740A2E
:103AC0000000000010B5644C207000F0EDF8B42840
:103AD00004D062A000F01CFB012010BD012140F2C7
:103AE000072000F0FDF801214FF4027000F0F8F813
:103AF0000021962000F0F4F8FD21972000F0F0F866
:103B00000021E32000F0ECF80421E42000F0E8F8C4
:103B10000221E52000F0E4F80121E62000F0E0F8C1
:103B20000321E72000F0DCF80221F52000F0D8F8AE
:103B30000521D92000F0D4F8CE21DB2000F0D0F808
:103B40000321DC2000F0CCF8F821DD2000F0C8F8DB
:103B500000219F2000F0C4F83C21A32000F0C0F811
:103B60000021B72000F0BCF83C21BB2000F0B8F8E1
:103B70000921B22000F0B4F80921CA2000F0B0F801
:103B800001214FF4CC7000F0ABF817214FF4D8703E
:103B900000F0A6F8002140F2AD1000F0A1F80521D8
:103BA000FF2000F09DF805214FF4807000F098F898
:103BB000052140F2991000F093F81B214FF4D370C7
:103BC00000F08EF83E214FF4D67000F089F81F21E6
:103BD00040F2A71000F084F80021302000F080F8B7
:103BE0001021112000F07CF830214FF4857000F096
:103BF00077F846213F2000F073F8FF21312000F0D4
:103C00006FF86321402000F06BF801212E2000F0B6
:103C100067F809211B2000F063F831213E2000F0F5
:103C20005FF82421142000F05BF82078012806D0EA
:103C3000022806D0032806D0042806D009E0642113
:103C400004E0282102E0192100E05521242000F0A1
:103C500047F8002010BD0000F4000020320D0A00DB
:103C600030B5040AC5B200F0BBF9522000F09FF94C
:103C700000F0CAF9204600F09AF900F0C5F928468C
:103C800000F095F900F0C0F900F0AAF9532000F017
:103C90008EF900F0B9F900F076F9024600F06AF901
:103CA00000F0A9F9104630BD0020FFF7D9BF10B5CC
:103CB0004D20FFF7D5FFC007FAD00121182000F0F2
:103CC0000FF84F20FFF7CCFF4007FAD56220FFF72F
:103CD000C7FF04460721152000F002F8204610BD5A
:103CE00070B50E46040AC5B200F07AF9522000F011
:103CF0005EF900F089F978B9204600F058F900F033
:103D000083F9284600F053F900F07EF9304600F0C0
:103D10004EF900F079F918B100F06DF9012070BD8D
:103D200000F069F9002070BD2DE9F84F01211D2038
:103D3000FEF78CFD01212B48FDF70CFD14208DF8BA
:103D400003000324DFF8A0808DF802404FF4807553
:103D5000ADF8005069464046FDF7AAFCDFF88C90AC
:103D60004FF4D876ADF8006069464846FDF7A0FCF0
:103D7000DFF87CA04FF43077ADF80070694650460C
:103D8000FDF796FC29464046FDF720FD31464846A2
:103D9000FDF71CFD39465046FDF718FD04268DF849
:103DA00003608DF8024048F24800ADF80000694613
:103DB0004846FDF77DFCADF8005069465046FDF7DA
:103DC00077FC0C4A0120107000F015F902201070E9
:103DD00000F011F9147000F00EF9167000F00BF9F4
:103DE000BDE8F88F0002300000080140000C0140DF
:103DF00000100140F40000200E480F49007801280F
:103E00000BD002280DD00D4903280FD0042803D170
:103E1000486940F4007048617047086840F08000CD
:103E200002E0086840F0100008607047486940F000
:103E30004000F0E7F4000020140C014000100140A5
:103E40000E480F49007801280BD002280DD00D49EB
:103E500003280FD0042803D1086940F400700861DA
:103E60007047086840F0800002E0086840F01000E9
:103E700008607047086940F04000F0E7F400002057
:103E8000100C0140001001400F4810490078012833
:103E90000BD002280DD0032810D0042804D10C48E0
:103EA000016841F4807101607047086840F48070D7
:103EB00002E0086840F0200008607047054841694A
:103EC00041F0800141617047F4000020140C014072
:103ED00014080140001001400F48104900780128E3
:103EE0000BD002280DD0032810D0042804D10C4890
:103EF000016841F4807101607047086840F4807087
:103F000002E0086840F02000086070470548016939
:103F100041F0800101617047F4000020100C014065
:103F200010080140001001400E480F490078012898
:103F300007D0022807D0032809D004280CD000207D
:103F4000704708680AE00868C0F3401070470748E7
:103F50008068C0F3C010704705480068C0F30020B7
:103F600070470000F4000020080C014000100140E0
:103F70000808014000B5FFF7AFFFFFF761FF5DF8EC
:103F800004EBFFF739BF00B5002213465006020EBE
:103F9000FFF756FFFFF7C8FF08B1521CD2B2FFF778
:103FA0002BFF5B1CDBB2082BF0D3104600BD00B525
:103FB00003460022180602D5FFF78EFF01E0FFF747
:103FC00063FFFFF73DFFFFF717FF072A01D1FFF758
:103FD00083FF5806521C030ED2B2082AEAD300BD52
:103FE00000B5FFF72DFFFFF777FFFFF74DFF5DF8F7
:103FF00004EBFFF701BF00B5FFF746FFFFF720FF17
:104000005DF804EBFFF768BF00B5FFF765FFFFF74A
:1040100017FFFFF789FF08B1012200E00022FFF738
:10402000EBFE104600BD00000549002008708870B6
:10403000487014394880C8808872C88108817047E8
:10404000400100202DE9F041304C0E46054620216C
:104050002046FDF7B9FB10212046FDF7B5FB7E2079
:1040600000EA4507082538064FF04001204602D5F2
:10407000FDF7ACFB01E0FDF7A7FB022000F08BFD94
:1040800020212046FDF7A2FB022000F084FD7806E7
:10409000070E20212046FDF797FB022000F07BFD54
:1040A0006D1E15F0FF05DED1082530064FF04001EA
:1040B000204602D5FDF78AFB01E0FDF785FB0220D3
:1040C00000F069FD20212046FDF780FB022000F072
:1040D00062FD7006060E20212046FDF775FB0220CA
:1040E00000F059FD6D1E15F0FF05DED120212046A0
:1040F000FDF76CFB022000F04EFD10212046FDF77D
:1041000065FBBDE8F041022000F045BD000801401C
:104110000FB4054B10B503A9044A029800F006F944
:1041200010BC5DF814FB0000894C0008E80000207A
:104130000FB4084B10B504A902AA039800F0F6F8D2
:10414000044602A9002000F088FC204610BC5DF85F
:1041500014FB00005B4A000800487047FC00002088
:104160000148006870470000FC00002002E008C819
:10417000121F08C1002AFAD170477047002001E0E1
:1041800001C1121F002AFBD17047000001490860DD
:1041900070470000FC0000202DE9FF5F82B0002185
:1041A000DDE90430020DDDF840B0034318D044F6D9
:1041B0001050A2F2FF3242431514119801281FD06B
:1041C000A5EB0B00401C5FEA000A4FF000064E4FC3
:1041D000DFF83891B046504615D5CAF1000413E017
:1041E000119801244AA3012801D16FEA0B0102981A
:1041F000119AC0E90031C0E9024206B0BDE8F09F63
:10420000CBF10000DFE704460021404A491842EBA9
:104210000450CDE9001012E0E00707D032463B46DB
:1042200040464946FCF796F98046894632463B4669
:1042300010461946FCF78EF906460F466410002C0E
:10424000EAD1DDE90401DDE90023BAF1000F06DA65
:10425000FCF780F942464B46FCF77CF905E0FCF799
:10426000EBF942464B46FCF7E7F904460E460022BE
:10427000284BFCF7D3FA03D84FF0FF30014607E094
:104280000022254B20463146FCF7BDF8FCF7A0FC88
:10429000102409E0002C0ADB0A220023FCF71CFB97
:1042A000039B30321A55641E50EA0102F2D1641C9D
:1042B000039AC4F111031444119A012A03D0012274
:1042C00008430DD10AE0084304D000204FF0110B41
:1042D000119072E7A3EB0B056D1E0DE05B4504DD4D
:1042E0004FF0000205F1010504E003DA4FF000028F
:1042F000A5F10105002AECD002981199C0E902311C
:10430000C0E9004579E70000000014400000F03FDC
:10431000300000000000F0430000E03F30380A2881
:1043200001D2012070470020704700002DE9FF4FA7
:1043300095B09B468946064600250FE2252877D191
:1043400000242746F84A0121059400E0044316F8AA
:10435000013F203B01FA03F01042F7D130782A28C0
:1043600011D06FF02F033078A0F13002092A16D84F
:10437000059A44F0020402EB820203EB420210446D
:10438000761C0590EFE759F8042B0592002A03DA12
:10439000504244F40054059044F00204761C3078F6
:1043A0002E2816D116F8010F44F004042A280DD047
:1043B0006FF02F023078A0F13003092B09D807EBFA
:1043C000870302EB4303C718761CF3E759F8047B15
:1043D000761C30786C280FD006DC4C2817D0682863
:1043E0000DD06A2814D104E0742810D07A280FD197
:1043F0000DE044F400140AE044F4801401E044F4B5
:1044000040147278824202D104F58014761C761C26
:10441000307866280BD013DC582877D009DC0028C8
:1044200075D04528F6D04628F4D047281AD19DE10A
:1044300018E0632835D0642879D0652812D195E139
:10444000702873D008DC6728F1D069286FD06E28F7
:104450000DD06F2806D1B5E073282CD0752875D003
:10446000782874D05A46179990476D1C75E1C4F3AB
:104470000250022809D003280DD0D9F800100428D2
:104480000DD00D6009F1040967E1D9F80010EA17B1
:10449000C1E90052F6E7D9F800100D80F2E70D707F
:1044A000F0E719F8041B8DF8001000208DF80100CA
:1044B000EA46012003E059F804AB4FF0FF306107F2
:1044C0004FF0000102D40DE008F101018846B94225
:1044D0000FDA8045F8DB1AF808100029F4D108E05B
:1044E00008F1010188468142FADB1AF80810002918
:1044F000F6D105985B46A0EB080721463846179A87
:1045000000F094FA284400EB080507E04DE029E1AB
:104510000DE01AF8010B5A4617999047B8F10108B7
:10452000F7D25B4621463846179A13E142E00A2249
:104530000092C4F302524FF0000A022A08D059F840
:1045400004CB032A4FEAEC710AD00DE029E02AE0FF
:1045500009F1070121F00702F2E802C1914609E0E2
:104560000FFA8CFC4FEAEC71042A03D14FFA8CFC51
:104570004FEAEC71002907DA0A460021DCF1000C51
:1045800061EB02012D2202E0220504D52B228DF8D9
:104590000420012203E0E20701D02022F7E7904641
:1045A00059E00A2102E010220DE010214FF0000A2C
:1045B00000910BE010224FF0000A44F00404082799
:1045C000009203E008224FF0000A0092C4F3025266
:1045D000022A05D059F804CB0021032A08D009E0AB
:1045E00009F1070121F00702F2E802C1914605E056
:1045F0001FFA8CFC042A01D10CF0FF0C4FF00008CC
:10460000220728D5702806D0009B83F0100353EAB8
:104610000A0305D00EE040228DF80420012208E0B4
:104620005CEA010206D030228DF804208DF80500E6
:1046300002229046009B83F0080353EA0A030AD142
:104640005CEA010201D1620705D530228DF8042011
:104650004FF001087F1E582804D034A003900EA804
:1046600002900DE036A0F9E753466046009AFCF749
:1046700033F984460398825C0298401E02900270CF
:104680005CEA0100F0D1029806A9081A00F1200A9C
:10469000600702D524F4803400E00127574502DD8D
:1046A000A7EB0A0000E0002000EB0A01009005984B
:1046B0004144401A0590E00306D45B462146179A10
:1046C000059800F0B3F90544002706E001A85A4612
:1046D000C05D179990476D1C7F1C4745F6DBE003D2
:1046E0000CD55B462146179A059800F09FF90544C2
:1046F00004E030205A46179990476D1C0099481ED7
:1047000000900029F5DC08E0029802995A460078EA
:10471000491C0291179990476D1CBAF10001AAF14A
:10472000010AF1DC65E10000092801003031323373
:1047300034353637383961626364656600000000DD
:1047400030313233343536373839414243444546C7
:104750000000000000F058F90544761C307800286D
:104760007FF4ECAD19B02846BDE8F08F620700D4A5
:10477000062709F1070222F0070CFCE80223E146B4
:1047800003F000485FEA080C02D00FF2702C0DE035
:104790005FEA045C02D50FF2682C07E05FEAC47C94
:1047A00002D00FF2602C01E0AFF2700C4FF0FF3836
:1047B00023F00043CDF850C065280CD006DC452816
:1047C00009D046281DD047283DD13DE0662818D0A5
:1047D00067287ED138E00021112F01DB112000E095
:1047E000781CCDE9000106A90EA8FFF7D5FCDDE98C
:1047F0000F010E9A03910021009207F1010A049122
:104800004DE04FF000400097CDE9011006A90EA839
:10481000FFF7C2FCDDE90F0203920E9B1199002203
:10482000DDF80CA00093049211B9791C00EB010A89
:10483000B7EB0A0004D4C0F1FF3007F1010A04907D
:10484000AAEB0700019044E0012F00DA01270021C4
:10485000112F01DD112000E03846CDE9000106A945
:104860000EA8FFF799FCDDE90F010E9A03910021D4
:1048700004910092BA4621070CD40399514500DAFD
:104880008A46BAF1010F05DD009AAAF10101515CD7
:10489000302908D0B84202DA10F1040F06DA0121FB
:1048A000CDE9011015E0AAF10101E9E7002805DCD6
:1048B000049901440491AAEB000102E0411C514516
:1048C00000DD8A460499401A401C01904FF00040D8
:1048D0000290200704D40198504501DBCDF80480F4
:1048E00000208DF84F0002980DF14F07B0F1004FF6
:1048F00025D02B200E9002984FF0020800280CDAE9
:10490000404202902D200E9007E00A210298FBF70A
:10491000CDFF3031029007F8011DB8F10001A8F178
:104920000108F2DC02980028EFD1791E0E98087079
:10493000307800F0200040F0450007F8020D12A882
:10494000C01B00F107081498007800B1012000EBAB
:104950000A01019801EBE07105984144401A401E9C
:104960000590E00306D45B462146179A059800F0AF
:104970005DF805441498007818B15A461799904785
:104980006D1CE00324D55B462146179A059800F07C
:104990004DF805441CE00498002807DBDDE903011D
:1049A000884203DD0098405C179901E01799302098
:1049B0005A469047049805F10105401C049001985F
:1049C000401E019004D12E205A46179990476D1C25
:1049D000BAF10001AAF1010ADDDC05E017F8010BCC
:1049E0005A46179990476D1CB8F10001A8F10108CB
:1049F000F4DC5B462146179A0598ABE62D000000D3
:104A00002B000000200000002DE9F04104460025A5
:104A10001E461746880404D405E039462020B047D6
:104A20006D1C641EF9D52846BDE8F0812DE9F041E2
:104A3000044600251E469046C80301D5302700E0F5
:104A40002027880404D505E041463846B0476D1C50
:104A5000641EF9D52846BDE8F0810A68531C0B6036
:104A60001070704730B583B00446FFF779FB0546F8
:104A70000020CDE90000024621466846FBF7A9FF69
:104A80002846FFF783FBDDE9000103B030BD0000DD
:104A900008B5244C6078401C6070642000F0E8FD8C
:104AA00060780528F6D3FCF7DFFE1F4D1FA105F542
:104AB000F076B5F90430B5F90220301DFFF738FB68
:104AC00000231A463146606E00F0E0FEB5F908306A
:104AD000B5F9062018A1301DFFF72AFB00231A465E
:104AE0003146606E00F0D2FE0E486030C178009111
:104AF0008378028814A1301DFFF71AFB00231A46A1
:104B00003146606E00F0C2FE00231A463146606EE8
:104B100000F0BCFE012802D00EA0FFF7F9FA002039
:104B20006070B7E714000020140100204C463A25BD
:104B300064204C423A25640052463A256420524291
:104B40003A25640A000000002325647C25647C2546
:104B5000647C0A0051756575652046756C6C0A00A9
:104B600000B502464FF47A7302E0184600F003F8ED
:104B7000521EFAD200BD00EBC000C1004FF0E02091
:104B8000416100218161052101610169C903FCD5F1
:104B900004210161704700EBC00202EB00104FF6E8
:104BA000FF72002102EA800002E000BF491C89B2C6
:104BB0008142FAD37047000030B50B4CA4F10E02CD
:104BC0005169558834F81130EB1A03449BB2538075
:104BD00024F81100491C01EBD17020F00100081AE3
:104BE0005061580830BD00002200002030B50B4C49
:104BF000A4F11802D169958834F81130EB1A0344F6
:104C00009BB2938024F81100491C01EBD17020F075
:104C10000100081AD061580830BD00002C000020A7
:104C200030B50B4CA4F12002516AD58834F811300C
:104C3000EB1A03449BB2D38024F81100491C01EB0A
:104C4000D17020F00100081A5062580830BD0000F1
:104C50003400002030B50B4CA4F12802D16A15892C
:104C600034F81130EB1A03449BB2138124F811007D
:104C7000491C01EBD17020F00100081AD0625808DD
:104C800030BD00003C00002013490A78C1B2022A5E
:104C900004D0032A09D0042A16D00DE00F4A138845
:104CA0005B06FCD50D4A121D05E00D4A13885B0614
:104CB000FCD50B4A121D11800A4A13885B06FCD5ED
:104CC000084A121D11807047074A13885B06FCD5FD
:104CD000054A121DEFE70000E400002000440040F8
:104CE0000048004000380140004C00402DE9FC41E4
:104CF000FEF7B6FEFFF798F900F0F0F80022682101
:104D0000142000F055FD38490425AF01486601F133
:104D10003C00CDE9005000233A4634A1364800F06B
:104D2000D5FE314905203831CDE9000100233A464E
:104D300032A1354800F0CAFE2B4801244030CDE9AD
:104D400000400023802231A1334800F0BFFE2649F5
:104D500003204431CDE9000100233A462FA1324817
:104D600000F0B4FE204802264830CDE90060002360
:104D700080222EA1304800F0A9FE1B4800234C30B1
:104D8000CDE900603A462DA1304800F09FFE16485C
:104D900000235030CDE9004080222DA12F4800F0A3
:104DA00095FE114800235430CDE9004080222CA10B
:104DB0002E4800F08BFE0C4800235830CDE900400F
:104DC0003A462BA12D4800F081FE074800235C30B5
:104DD000CDE9005080222AA12C4800F077FE00F097
:104DE0007DFC0020BDE8FC81140000206D6F74691B
:104DF0006F6E5F7461736B00914E00086D6F746F1E
:104E0000725F7461736B00009D4E0008626173698C
:104E1000635F7461736B0000914A00084D50555FE9
:104E20007461736B00000000A91900084D61737470
:104E300065725F7461736B00AD1A00084D6973731E
:104E4000696F6E5F68616E646C657200951B000827
:104E50007463735F7461736B000000005155000848
:104E60007263635F7461736B000000005554000847
:104E70004C617A65725F7461736B0000F51800080D
:104E800053656E6465725F7461736B00612B00081B
:104E9000FEF734F80A2000F0EBFBF9E70E4C012096
:104EA000FDF74AFA0120FEF78FF8052000F0E0FB3D
:104EB0000220FDF741FA0220FEF786F8052000F0F7
:104EC000D7FB94F844000128E9D1A16AA06CFBF754
:104ED00004FAA064E3E700005001002070B5254CFF
:104EE000002601252846FEF703F8B42801DD002539
:104EF00002E0FFF761FEE0800220FDF7F9FFB42831
:104F000001DD002502E0FFF771FE20810320FDF79F
:104F1000EFFFB42801DD002502E0FFF781FE60808D
:104F20000420FDF7E5FFB42805DCFFF793FEA08021
:104F30000DB1761CB6B26420FFF712FE142ED0D34A
:104F4000B4F90200C0F14B006081B4F90400C0F173
:104F50004B00A081B4F90600C0F14B00E081B4F928
:104F60000800C0F14B002082BDE870406420FFF7CC
:104F7000F7BD0000140100202DE9F0411E4C0F4642
:104F80000546E6682068001D00F0F2FA38B920688E
:104F900090F82C1001208840216981432161681C10
:104FA00015D1A7B1154922684868906023688268C6
:104FB000DA6022688368121D5A602268121D8260BE
:104FC000206841610868401C0860BDE8F0812068E5
:104FD0003544B5424560216805D2E06BBDE8F0413B
:104FE000091D00F0E6BAA06B091D00F0E2FAA06A04
:104FF0008542EAD2A562E8E7A40000202448002008
:105000002DE9F041054600F0EDFA364CA068401C51
:10501000A0602068344F10B1606940B32DE0256076
:10502000A068012829D1002606EB860007EB800046
:1050300000F0B1FA761C052EF6D32B48643000F050
:10504000AAFA2948783000F0A6FA27488C3000F0F8
:10505000A2FA2548A03000F09EFA2348B43000F0B0
:105060009AFA21486430A0631430E06305E02068B8
:10507000E96AC06A884200D82560606A0121401C44
:105080006062E86A226981401143216100EB80007F
:1050900007EB80004068A8608168E9608268291D8C
:1050A00051608160E86A00EB800007EB8001696174
:1050B00057F82010491C47F8201000F0A1FA606949
:1050C00000280CD02068E96AC06A884207D20749E4
:1050D0004FF080500860BFF34F8FBFF36F8FBDE874
:1050E000F0810000A40000207047002004ED00E0E3
:1050F00030B4026C0B46002A0BD0C1681144C16069
:105100008468A14201D30168C16030BC1846FBF736
:1051100077B830BC70472DE9F041856B16460446E0
:105120000027026CFAB17EB1E068FBF769F8E1682C
:10513000206C091AE1602268914202D2A168081A23
:10514000E060022E0DD00EE06068FBF759F8216C8C
:10515000606808446060A168884204D32068606089
:1051600001E005B16D1E6D1CA5633846BDE8F081F8
:1051700010B50446006B00F04DFA2046BDE8104023
:1051800000F048BA0E484FF48841420706D0C01DCF
:105190000B4920F00700411AC1F58841094A002354
:1051A0000144C2E900030839143A21F007011160F3
:1051B0004B600B600B1AC0E900139360536070479B
:1051C0007003002098000020144E154CA6F1A00793
:1051D0004FF08058DFF84C9012E000BF00F002FA68
:1051E000F068C568281D00F0C3F9A068401EA060E3
:1051F0006068401E606000F003FA2846FFF7B8FFC1
:1052000060680028EAD138680128F9D9C9F8008017
:10521000BFF34F8FBFF36F8FF2E7000010480020FD
:10522000A400002004ED00E02DE9F0479946DDE9F7
:10523000096480466FF00303206B03EB8202089D34
:10524000104420F0070761B1002023180A5C83F89E
:1052500034200A5C12B1401C1028F6D3002084F8D8
:105260004300052D00D30425201DE56200F09EF9C2
:1052700004F1180000F09AF92461C5F10500646298
:10528000A0614A464146384600F0D2F82060002E20
:1052900000D03460BDE8F08730B5114900E0114618
:1052A0000A688242FBD34B685C18844203D1406891
:1052B00018444860084643681C18944209D1084CB9
:1052C000143C2468A24209D052681A4442600A6819
:1052D00012680260814200D0086030BD0460F9E7C6
:1052E0009800002010B5044600F07CF9A06B28B1AE
:1052F0005FF0000400F084F9204610BD0124F9E7B6
:105300000548816B096821B1816BC96809688162B0
:1053100070474FF0FF31FAE7A4000020BF2080F370
:105320001188BFF34F8FBFF36F8FFEE72DE9F04178
:10533000044600F057F994F9455004F1240609E0B9
:10534000606A48B1304600F081FC08B100F0B0F965
:105350006D1E6DB2002DF3DC4FF0FF3684F8456012
:1053600000F04EF900F03EF994F9445004F11007B2
:1053700009E0206948B1384600F068FC08B100F047
:1053800097F96D1E6DB2002DF3DC84F84460BDE822
:10539000F04100F035B9000070B50446002600F079
:1053A000C5F9224D286808B9FFF7ECFECCB304F02C
:1053B0000700C0F11000C1438C4232D821180029E7
:1053C0002FDD686881422CD81848143002461468D2
:1053D00001E02046144662688A4202D22268002A0E
:1053E000F7D12A6894421CD006682268026060687F
:1053F0000836421A102A04D9601842606160FFF72B
:105400004BFF61686868401A6860AA68904200D2E1
:10541000A86041F00040606000202060E868401C07
:10542000E86000F077FC304670BD0000840000208A
:1054300010B5031F4FF080741C601B1F21F0010189
:105440001960191F024B0B60143940380A6010BDF7
:105450001D5300082B4C2C4EA4F10A052B49522059
:10546000FDF7E6F82870262806D0FDF70BF9FCF7C3
:10547000CBFFFCF7CDFFF1E72448FCF7D6FF2870FF
:105480002628EBD12148FDF73DF928702628E5D1E3
:105490001C490520FDF7A6F82870E078652828D17A
:1054A00020796E2825D16079312822D1A07932283F
:1054B00012D117A1301DFEF73BFE00231A461249F8
:1054C000686E00F0E3F9E078652812D120796E2843
:1054D0000FD1607931280CD1A079FE2809D110A113
:1054E000301DFEF725FE00231A460749686E00F0BE
:1054F000CDF9FDF75EF8642000F0BAF8FDF7C2F8C8
:10550000ACE700001E000020F40200200001002093
:10551000706F736974696F6E2031320A0000000089
:10552000706F736974696F6E20310A0070B514462C
:105530000D460646FBF7A6F901D2284670BD214666
:105540003046FBF7A9F901D2204670BD304670BD48
:1055500001210648FDF7E4FD044904480839FDF738
:10556000C9F9282000F084F8F2E700007C00002050
:10557000D0E9013201699A60D0E901235A604A6892
:10558000824201D182684A60002202610868401E9E
:1055900008600868704700F108014FF0FF32C0E969
:1055A0000112C160016100210160704700210161A9
:1055B000704730B50B685A1C02D000F1080202E0B7
:1055C000026904E02246546825689D42FAD953686E
:1055D0004B6099608A60516008610168491C0160F4
:1055E00030BD0000BF2080F31188BFF34F8FBFF3A1
:1055F0006F8F02480168491C01607047A0000020BD
:1056000003490868401E086001D180F31188704783
:10561000A000002070B500281BD0A0F1080460682D
:10562000002816DA2168002913D120F000406060BC
:1056300000F07CF8074D606869680844686020469F
:10564000FFF72AFE2869401C2861BDE8704000F081
:1056500061BB70BD840000204FF0E020002101619B
:105660008161024941610721016170473F190100D1
:1056700010B5020009D000F059F800211046FFF7DC
:105680007BFC00F047FB002807D104494FF0805015
:105690000860BFF34F8FBFF36F8F10BD04ED00E0C4
:1056A00002490A6A0260C96841607047A40000208C
:1056B00001490120C8617047A400002010B50C46C4
:1056C000054909681831FFF774FF2046BDE810400E
:1056D0000121FFF751BC0000A40000207CB50F4859
:1056E0000025CDE900502B4680220DA10E4800F088
:1056F000EDF90A4C2C3C01280ED1BF2080F3118813
:10570000BFF34F8FBFF36F8F4FF0FF30A0620120C8
:105710006061E56000F034F8206B7CBDD0000020B3
:1057200049444C4500000000C95100080248416B43
:10573000491C416370470000A40000200E48416BE3
:1057400011B10121C16170470021C16101690B4A9A
:10575000B1FA81F1C1F11F0101EB810102EB81017D
:1057600001F108034A6852684A609A4201D15268BE
:105770004A60D16801607047A40000207047002093
:10578000094810B5016841F47F010160016841F0EA
:105790007F410160FFF760FF044900200860FAF7CD
:1057A000E3FC002010BD000020ED00E0A000002080
:1057B00070B50E4605004FF0000418D0601EB0FB17
:1057C000F5F0B04213D305FB06F010F1490F0ED8E7
:1057D0004830FFF7E1FD040009D004F148012046FC
:1057E0003EB10160C0E90F56012100F005F82046E6
:1057F00070BD0060F6E700002DE9F0410F4604009F
:105800004FF001063CD0E06BC8B3B51EB5FBF0F11C
:10581000206C814234D3FFF7E5FED4E90F202168E4
:1058200002FB0011A1600021A163216861600A46AA
:10583000D4E90F01401E00FB01212046E16000F881
:10584000445F457004F110004FB1FFF7A4FE04F16E
:105850002400FFF7A0FE00BFFFF7D2FE11E0216990
:105860000029F9D000F0F2F90028F5D006494FF0F0
:1058700080500860BFF34F8FBFF36F8FECE7FFE7F7
:1058800000263046BDE8F08104ED00E02DE9FF4739
:1058900000273B4E82B099468A460446B8464FF0F0
:1058A000805500BFFFF79EFEA06BE16B884206D3D8
:1058B000B9F1020F03D00498C0B1D7B11DE04A4638
:1058C00051462046FFF727FC616A19B104F1240014
:1058D00000F0BCF920B13560BFF34F8FBFF36F8F7D
:1058E000FFF78EFE012006B0BDE8F087FFF788FEC7
:1058F00021E06846FFF7D4FE0127FFF781FEFFF79E
:1059000015FFFFF76FFE94F94400401C01D184F8A5
:10591000448094F94500401C01D184F84580FFF78C
:105920006FFE04A9684600F0A5F830B12046FFF7E5
:10593000FDFC00F0EFF90020D5E7FFF753FEA06B68
:10594000E16B884213D1FFF75BFE04F1100004996C
:10595000FFF7B4FE2046FFF7E9FC00F0DBF9002872
:10596000A0D13560BFF34F8FBFF36F8F9AE7FFF77A
:1059700047FE2046FFF7DAFC00F0CCF992E7000082
:1059800004ED00E02DE9F7470026DFF8E48083B05E
:105990008A460446B1464FF0805700BFFFF722FE0B
:1059A000A56BC5B151462046FFF7A2FB6D1EA5634E
:1059B000206950B104F1100000F048F928B1C8F88E
:1059C0000070BFF34F8FBFF36F8FFFF719FE0120F9
:1059D00006B0BDE8F087059808B11EB106E0FFF7F4
:1059E0000FFE27E06846FFF75BFE0126FFF708FE83
:1059F000FFF79CFEFFF7F6FD94F94400401C01D12F
:105A000084F8449094F94500401C01D184F84590F5
:105A1000FFF7F6FD05A9684600F02CF8002820469F
:105A20000AD0FFF783FC00F075F92046FFF75AFC17
:105A30000028B3D00020CBE7FFF754FC90B104F16D
:105A400024000599FFF73AFE2046FFF76FFC00F0AF
:105A500061F90028A2D1C8F80070BFF34F8FBFF3DF
:105A60006F8F9BE72046FFF761FC00F053F995E745
:105A700004ED00E02DE9F0410C460546FFF7B2FDCC
:105A8000114EF2686B682168D01A4F1C0AD02F683B
:105A9000D6F820C00026674506D0934204D80125D9
:105AA00026600BE0002509E0814205D9081A206034
:105AB0002846FFF7F5FDF5E701252660FFF7A0FD75
:105AC0002846BDE8F0810000A40000202DE9FF5F1A
:105AD0008346DDE90E87994616468A469000FFF711
